:020000040800F2
:10000000002800200501000865310008C52A000805
:10001000393000082B0800080759000800000000CC
:10002000000000000000000000000000213C00086B
:100030006F08000800000000053B0008953C000820
:100040001F0100081F0100081F0100081F01000810
:100050001F0100081F0100081F0100081F01000800
:100060001F0100081F0100081F01000839080008CF
:100070001F0100081F0100081F0100081F010008E0
:100080001F0100081F0100081F0100081F010008D0
:10009000915800081F0100081F0100081F010008F7
:1000A0001F0100081F0100081F0100081F010008B0
:1000B0001F0100080D3D00081F0100081F01000876
:1000C0001F0100081F0100081F0100081F01000890
:1000D0001F0100081F0100081F0100081F01000880
:1000E0001F0100081F0100081F010008DFF810D0E1
:1000F00000F0BAFA00480047AD620008AFF3008094
:10010000002800200648804706480047FEE7FEE733
:10011000FEE7FEE7FEE7FEE7FEE7FEE7FEE7FEE7B7
:10012000093D0008ED000008202A04DB203A21FAEE
:1001300002F00021704721FA02F3D040C2F1200200
:100140009140084319467047D2B201E000F8012BF4
:10015000491EFBD270470022F6E710B513460A4647
:1001600004461946FFF7F0FF204610BD2DE9FE4F6B
:10017000804681EA0300C00F0C46009021F0004148
:1001800023F00045B8EB0200A94105D240462146C4
:1001900090461C460B46024623F00040104347D0D1
:1001A000270DC7F30A00C3F30A510290401A0190C9
:1001B00040286BDAC3F3130040F4801B009892468A
:1001C00020B10023D2EB030A63EB0B0B01985946D5
:1001D000C0F14002504600F0B0F906460D465046C8
:1001E0005946019A00F0B8F910EB0800614100246B
:1001F00087EA115284EAE7731A4340D0009A62B347
:10020000019A012A4FEA075215DC001B61EB02013B
:100210004FF0004202EA0752CDE90042001C41F5CE
:10022000801132462B4600F0B8F903B0BDE8F08FDC
:1002300040462146F9E7001B61EB0201001C41F535
:10024000801300185B412018A2F5001747EB03014B
:1002500040EAD570B6196D4111E06D084FEA3606D7
:1002600045EAC0754FEA0752001B61EB0201001C12
:1002700041F5801149084FEA3000001951413246DA
:100280002B4603B0BDE8F04F00F078B9009801228A
:1002900040000023D0EB020263EBE073009821469C
:1002A0004FEAE074B8EB000061EB0401E9E783F08A
:1002B00000435BE781F0004158E72DE9FE4F81EAFA
:1002C000030404F0004421F0004100944FF0000BBF
:1002D00023F0004350EA01045ED052EA03045BD0ED
:1002E000C3F30A54C1F30A552C44A4F2F334019425
:1002F000A0FB0254C1F3130141F48011C3F31303B3
:1003000043F4801301FB024400FB034E840A970A66
:1003100044EA815447EA8357A4FB076802958D0A93
:1003200005FB07854FEA932C04FB0C542705029D1F
:100330004FEA065847EA1637B5EB08056EEB070C8F
:10034000870E920E47EA811742EA8312A7FB020149
:10035000B6EB0B0164EB00042B0D43EA0C335E1883
:1003600044EB1C50DA465146E7FB0201C5F3130487
:100370004FEA0B3343EA14534FEA0432019C43EA39
:100380000603A4F10C040294009CCDE900B400F033
:1003900004F903B0BDE8F08F00200146F9E72DE92C
:1003A000F04D81EA030404F0004B21F000451446AF
:1003B0004FF0000A23F0004150EA050220D054EA31
:1003C00001021DD0C5F30A570246C5F31303C1F35A
:1003D0001300C1F30A5640F4801543F48013A7EBD1
:1003E0000608101BD64608F2FD3873EB050002D351
:1003F00008F1010801E092185B41B8F1000F03DA3F
:1004000000200146BDE8F08D00204FF48011064623
:1004100084460EE0171B73EB050705D3121B63EB35
:10042000050306434CEA010C49084FEA30009218D4
:100430005B4150EA0107EDD152EA030012D082EA93
:10044000040083EA0501084305D0101BAB4106D226
:100450000122002306E000224FF0004302E06FF08B
:10046000010253101AEB06004CEB085110EB0A0086
:1004700041EB0B01BDE8F04D00F080B830B5041E33
:1004800071F1000404DB4FF00044404264EB0101D1
:10049000141E73F1000405DB1C464FF0004352426A
:1004A00063EB0403994208BF904230BD30B50B4660
:1004B000014600202022012409E021FA02F59D4294
:1004C00005D303FA02F5491B04FA02F52844151E68
:1004D000A2F10102F1DC30BD2DE9F05F05460020FC
:1004E00092469B4688460646814640241BE02846A5
:1004F000414647462246FFF717FE53465A46C01A62
:10050000914110D311461846224600F016F82D1AD4
:1005100067EB01084F4622460120002100F00DF84C
:1005200017EB00094E41201EA4F10104DFDC484610
:1005300031462A464346BDE8F09F202A04DB203A94
:1005400000FA02F1002070479140C2F1200320FA26
:1005500003F3194390407047202A06DBCB17203A5B
:1005600041FA02F043EAE07306E041FA02F3D040B8
:10057000C2F12002914008431946704710B5141E7D
:1005800073F1000408DA401C41F1000192185B414C
:100590001A4301D120F0010010BD2DE9F04D924623
:1005A0009B4611B1B1FA81F202E0B0FA80F220323A
:1005B0009046FFF7C2FF04460F4640EA0A0041EAB0
:1005C0000B0153465A46084313D0114653EA010023
:1005D00019D0C8F140025046FFF7A6FD05460E4669
:1005E000504659464246FFF7A8FF084305D0012070
:1005F00004E020463946BDE8F08D0020054346EA78
:10060000E0762C4337430A986305E40AA0EB080020
:100610000022FD0A44EA47540A3002D50020014670
:10062000E9E7010510196941DDE90845001969414B
:10063000BDE8F04DA2E7C1F30A52C1F3130140F245
:10064000FF3341F480119A4202DA002001467047DC
:1006500040F233439A42A2F2334202DC5242FFF7A5
:1006600063BDFFF76ABF0000064C074D06E0E06877
:1006700040F0010394E8070098471034AC42F6D3E9
:10068000FFF738FDA8800008C880000870B58C18F6
:1006900010F8015B15F0070301D110F8013B2A1196
:1006A00006D110F8012B03E010F8016B01F8016B83
:1006B0005B1EF9D12B0705D40023521E0DD401F87F
:1006C000013BFAE710F8013BCB1A921C03E013F848
:1006D000015B01F8015B521EF9D5A142D8D300207D
:1006E00070BD000070B5044600688168C943C90741
:1006F00017D1816821F00101816000F05DFD0546A0
:100700000AE000BF00F058FD401B022804D9206811
:100710008068C043C00706D020688068C043C00717
:10072000F0D0002070BDA06A40F01000A062E06A26
:1007300040F00100E062012070BD10B50146406A42
:10074000826A12F0500F05D0006A026BBDE81040BB
:1007500008461047816A41F4007181620168896826
:10076000C1F3424107290CD1017B51B9816A21F4BF
:1007700080718162816AC90403D4816A41F00101F8
:10078000816200F08BF910BD10B5406A816A41F0BA
:1007900040018162C16A41F00401C16200F080F948
:1007A00010BD10B5406A00F07AF910BDF8B500260A
:1007B0000446009600688168C943C9072DD0816846
:1007C00041F001018160164816490068B0FBF1F064
:1007D00000E0401E00900028FBD100F0EDFC054633
:1007E00016E000BF00F0E8FC401B022810D920688A
:1007F0008068C043C0070BD0A06A40F01000A06220
:10080000E06A40F00100E06284F824600120F8BD55
:1008100020688068C043C007E4D10020F8BD000014
:100820001400002040420F007047FEE70020704790
:100830000020704700207047014800F0A1BA000076
:10084000F401002030B590F840500124AC40C56B55
:100850006C60046863604368102B036803D0996080
:100860000068C26030BD9A600068C16030BD7047EA
:1008700072B60121002002F0CDF9C82000F090FBF3
:100880000021084602F0C6F9C82000F089FBF0E715
:1008900070B50B480168001D0568001D006808441C
:1008A00000280CD0074C0822A11C02F00CF904F11E
:1008B00012012846BDE87040042202F004B970BD60
:1008C000E8F7FF1F78000020F8B5002504460095E2
:1008D00090F8240001280BD0012084F82400204641
:1008E000FFF700FF2046FFF761FF060002D050E04F
:1008F0000220F8BDA06A20F4885040F00200A062F7
:10090000022001F093F925490968B1FBF0F040009D
:1009100000E0401E00900028FBD12068816841F073
:100920000801816000F048FC074608E000F044FC44
:10093000C01B0A2803D920688068000715D42068E6
:1009400080680007F2D42068816841F0040181606A
:1009500000F032FC074612E000F02EFCC01B0A2813
:100960000DD920688068400709D5A06A20F00200F0
:1009700040F01000A06284F824500120F8BD2068E7
:1009800080684007E8D4A06A20F0020040F001002F
:10099000A06284F824503046F8BD00001400002006
:1009A000F8B50024009490F824202546012A12D09E
:1009B000012280F824204A681F23072A0DD20668E6
:1009C000776B521E02EB820293409F430B68934069
:1009D0001F43776319E00220F8BD06680D2A0AD28A
:1009E000376BD21F02EB820293409F430B68934008
:1009F0001F43376309E0F76A0D3A02EB8202934026
:100A00009F430B6893401F43F7620A6807230668F9
:100A10000A2A0AD3F7680A3A02EB420293409F433C
:100A20008B6893401F43F76008E0376902EB42028E
:100A300093409F438B6893401F4337610A68102A95
:100A400001D0112A20D1124B02689A4217D1936823
:100A50001B0219D4936843F40003936009681029BA
:100A600012D10C490C4A0968B1FBF2F101EB81018A
:100A7000490000E0491E00910029FBD104E0816A91
:100A800041F020018162012480F824502046F8BD05
:100A9000002401401400002040420F0070477047BE
:100AA000704700002DE9F0414FF0000704003D467B
:100AB0007ED0A06A002628B9E66284F82460204629
:100AC00000F07EF82046FFF70DFEA16AC90600D4AB
:100AD00020B1A06A40F01000A06269E0A16A21F490
:100AE000885141F00201A1626268E169237B0A43F7
:100AF00047EA43010A43A1684FF48077B94209D01D
:100B0000012907D05FF0000194F814C0BCF1010F77
:100B100002D00AE03946F7E7F3B1A36A43F02003B5
:100B2000A362E36A43F00103E3622368D3F804C0DD
:100B30002CF4694C4CEA010CC3F804C021688B68A2
:100B4000DFF870C003EA0C0313438B60A168B9425D
:100B50000BD0012909D00CE0DFF85CC0A3690CEBD5
:100B600043330B4343F40061DFE7218A0D05A5F50C
:100B700080152168CB6A23F470032B43CB62216874
:100B800089680E4B1940914208D1E662A16A21F0B2
:100B9000020141F00101A162BDE8F081A06A20F0EC
:100BA000020040F01000A062E06A40F00100E06244
:100BB0000120F1E7FDF7E1FF00E0FFFFFE0E1FFF60
:100BC00070B586B0002605460096019602960396FB
:100BD0000068224988423ED12149886940F400706A
:100BE0008861886900F400700490886940F004000E
:100BF0008861886900F004000490886940F008006A
:100C000088618869032400F0080004900F20CDE972
:100C100000046946134800F0D5F90220CDE900042C
:100C20006946114800F0CEF9114C1048C4E900069D
:100C30008020C4E9026040002061800060612020C3
:100C4000A061C001E061204600F044F908B1FFF75F
:100C50000FFE2C62656206B070BD000000240140EA
:100C60000010024000080140000C01400800024052
:100C7000F40100202DE9F047894604463B4900680D
:100C80003B4F0E1D9046884201D0B84207D13068D4
:100C900010F4702F03D001252846BDE8F08794F8A2
:100CA000240001280CD0012084F824002046FFF7FE
:100CB0007DFD05004FF0000004D084F82400EBE730
:100CC0000220EAE7A16A40F60162914341F4807193
:100CD000A1622168B94218D1326812F4702F14D081
:100CE000A16A41F48011A1623168490505D5A16A64
:100CF00021F4005141F48051A162A16AC9040AD5CE
:100D0000E16A21F00601E16206E0A26A22F48012A3
:100D1000A2624968E9E7E06284F82400216A154884
:100D20008862216A1448C862216A144808632168ED
:100D30006FF0020008602068816841F48071816072
:100D4000216843464A464C31206A00F0F1F8206899
:100D50008168C1F342410729816803D041F48011C1
:100D6000816099E741F4A001FAE700000024014006
:100D7000002801403B070008A30700088907000876
:100D80002DE9F05FC16B0C6801680B68D0F840C0BA
:100D9000042202FA0CF2494DDFF824A1494E4A4FD1
:100DA000DFF828B1DFF828E122422CD05A072AD5F3
:100DB0000A68920603D40A6822F004020A600168F5
:100DC000A94201D1042219E0514501D1402215E088
:100DD000B14202D14FF4806210E0B94202D14FF427
:100DE00080420BE0594502D14FF4802206E0714564
:100DF00002D14FF4800201E04FF080622F490839A0
:100E00004A60C16A3BE04FF0020808FA0CF818EAA1
:100E1000040F4FF000094FF0010235D05FEA8378EC
:100E200032D50B689B0605D40B6823F00A030B60D0
:100E300080F821200168A94201D1022219E0514520
:100E400001D1202215E0B14202D14FF4007210E02E
:100E5000B94202D14FF400520BE0594502D14FF490
:100E6000003206E0714502D14FF4001201E04FF06C
:100E70000072124908394A6080F82090816A00297E
:100E80001AD0BDE8F05F0847082505FA0CF52542A1
:100E900012D01B0710D50B6823F00E030B6090F8DF
:100EA0004010C36B02FA01F15960826380F821207F
:100EB00080F82090016BE2E7BDE8F09F0800024057
:100EC0001C00024030000240440002405800024032
:100ED0006C00024030B528B308C8134914221944E5
:100EE000B1FBF2F18900C1631049816302214177AE
:100EF0001A6843F6F0718A43D0E900142143D0E91F
:100F000002452C43214304692143446921438469F8
:100F10002143114319600021416301224277017787
:100F2000084630BD012030BDF8FFFDBF0000024083
:100F300070B5044690F82000002501280CD001204F
:100F400084F8200094F821600020012E06D084F857
:100F500020000225284670BD022070BD022684F8BC
:100F60002160A0632068066826F00106066020461E
:100F7000FFF768FCE06A00282068016802D041F0B1
:100F80000E0106E021F0040101602068016841F0D3
:100F90000A0101602068016841F001010160D9E7A0
:100FA00070B5044600F008F90546601C02D00448FC
:100FB0000078044400F000F9401BA042FAD370BD51
:100FC000080000202DE9F84FDFF8B8910024A9F1BE
:100FD000040B23460F2709F1040AABF1040EC9E004
:100FE0000125A5402A40AA427DD1674ED1F804C010
:100FF000ACEB0608B44532D014DCBCF1030F3AD098
:1010000009DCBCF1000F2AD0BCF1010F1CD0BCF1EF
:10101000020F31D11DE0BCF1110F17D0BCF1120F3E
:101020002AD119E0B8F5881F19D006DCB8F5803F41
:1010300015D0B8F5801F1FD111E0B8F5001F0ED0F4
:10104000B8F5041F18D10AE0CB6815E0CB681B1D6A
:1010500012E0CB6808330FE0CB680C330CE08B68F0
:101060002BB1012B4FF0080303D0456104E00423AA
:1010700002E0056100E00023FF2A01D8064601E0F6
:1010800000F104064FEA840501D9A5F12005D6F840
:10109000008007FA05FC28EA0C0803FA05F548EA7F
:1010A0000508C6F800804D68ED0062D5374DAE6981
:1010B00046F00106AE61AD6924F0030605F00105B6
:1010C0000095334D06EB050CDCF80850A607360FEB
:1010D00007FA06F825EA0805DFF8B880404503D18D
:1010E0004FF0000817E044E0DFF8AC80404502D143
:1010F0004FF001080FE0DFF8A480404502D14FF027
:10110000020808E0DFF89880404502D14FF003085C
:1011100001E04FF0040808FA06F848EA0508CCF8A0
:1011200008804D68D9F80060ED024D4601D51643A0
:1011300000E096432E604D68DAF80060AD02554637
:1011400001D5164300E096432E604D68DBF8006041
:10115000AD035D4601D5164300E096432E604D6811
:10116000DEF80060ED03754601D5164300E09643B6
:101170002E60641C0D682A46E5407FF431AFBDE85F
:10118000F88F000008040140000011100010024018
:101190000000014000080140000C01400010014027
:1011A000001401408068084000D0012070470AB157
:1011B000016170470904FBE701488068704700003F
:1011C000080000200248816802781144816070475D
:1011D00008000020074810B5016841F010010160C7
:1011E000032000F075F80F2000F006F800F024F856
:1011F000002010BD0020024070B50D4D04464FF494
:101200007A712878B1FBF0F00A490968B1FBF0F077
:1012100001F0D2F848B9102C07D200222146501E06
:1012200000F036F800206C6070BD012070BD000039
:1012300008000020140000200C4808B5816941F026
:1012400001018161816901F001010091C16941F0F1
:101250008051C161C06900F080500090044841682D
:1012600021F0E06141F00071416008BD00100240D2
:1012700000000140002809DB00F01F02012191401D
:101280004009800000F1E020C0F800117047000024
:10129000F0B40E4B1B680C46C3F30223C3F10705E1
:1012A000042D00D90425191D072901D2002300E0CF
:1012B000DB1E012606FA05F1491E214099409E4099
:1012C000761E16403143F0BC04F048BB0CED00E044
:1012D000064900F0070208684FF6FF03184040EA8D
:1012E0000220034A10430860704700000CED00E044
:1012F0000000FA0510B50C0607D501F0070101EB57
:10130000810100EBC100103005E001EB810100EB31
:10131000C10000F5A87099B232B1012202730181B7
:10132000190C4181002010BD00220273C180F9E731
:10133000704701EB810200EBC202D0F8D402526A7E
:1013400003F002BA01EB810200EBC202D0F8D40232
:10135000D2F8642103F063BA70B504460B0601F0BD
:10136000070000EB800104EBC1014FF001024FF0D8
:10137000000502D54A74103103E081F8515101F59E
:10138000A871087094F89002012808D084F890227F
:10139000206803F011FF84F89052002070BD0220F5
:1013A00070BD70B5044601F00F002279904201D95A
:1013B000012070BD0B0601F0070000EB800104EB7B
:1013C000C1014FF001024FF0000502D54A741031FF
:1013D00003E081F8515101F5A8718D70087094F8FF
:1013E0009002012808D084F89022206803F081FF41
:1013F00084F89052002070BD022070BD2DE9F05F8E
:1014000004685FEA424C0B788D69B4F850C04FF025
:1014100000064BF68F7948F2800A48F68F7B48F237
:10142000C00E4FF480672AD54FF0020808EBC308BE
:10143000C44407EB4C07E45BC4F30904A54203D39F
:101440002D1B8D6101D00BE08E61066836F82350AC
:1014500005EA090585F4005545EA0A0526F82350F2
:10146000520609D50D78036833F8252002EA0B02ED
:1014700042EA0E0223F8252084B30A8929E04FF0BE
:10148000060808EBC308C44407EB4C07E45BC4F34D
:101490000904A54203D32D1B8D6101D00BE08E61A1
:1014A000066836F8235005EA090585F4005545EA33
:1014B0000A0526F82350520609D40B78056835F83A
:1014C000232002EA0B0242EA0E0225F823202CB167
:1014D0004A8949690068234604F0E4F92046BDE8DA
:1014E000F09F2DE9F05F054600680C465FEA426C0C
:1014F00016468B692278B0F850C048F68F774CF2C8
:1015000080094FF4004B4FF6FF7E4FF4806A4FF096
:10151000000172D54FF0020808EBC208E0440AEB64
:10152000480C30F80C00C0F30900834211D91B1A93
:10153000A3610FD0730407D52E6836F822303B40E4
:1015400043EA090326F8223094F82420012A47D0E0
:1015500052E1A161607810B1012813D01AE0286827
:10156000B0F85030184400EB0210B0F80424C2F375
:101570000902A0F80424B0F8042442F40042A0F8C0
:10158000042407E02868B0F85030184400EB02103B
:10159000A0F804146278286812B1012A11D018E06A
:1015A000B0F850100844217800EB0110B0F80C148A
:1015B000C1F30901A0F80C14B0F80C1441F4004177
:1015C00005E0B0F850201044227800EB0210A0F89B
:1015D0000C1421782846FFF7ACFE700472D40BE19E
:1015E000626902446261E2690244E2612369226A3B
:1015F0009A4203D31846111A04E03EE084F82410FE
:101600000AB110462162617811B1012929D031E077
:101610002968B1F850201144227801EB0211B1F889
:101620000424C2F30902A1F8042401F204413E2873
:1016300007D94209C30600D1521E0B884BEA822209
:1016400007E048B14208C30700D0521C0B880EEADD
:10165000822213430B800DE00A8842F400420A8084
:1016600008E02968B1F850201144227801EB0211FA
:10167000A1F8040483B22289BAE04FF0060808EB0F
:10168000C208E0440AEB480C30F80C00C0F3090033
:10169000834211D31B1AA3610FD0730407D42E68A1
:1016A00036F822303B4043EA090326F8223094F80A
:1016B0002420012A51D09FE0A161607818B101284F
:1016C00014D01BE03FE02868B0F85030184400EB1D
:1016D0000210B0F80424C2F30902A0F80424B0F800
:1016E000042442F40042A0F8042407E02868B0F87B
:1016F0005030184400EB0210A0F8041462782868F7
:1017000012B1012A11D018E0B0F850100844217825
:1017100000EB0110B0F80C14C1F30901A0F80C148F
:10172000B0F80C1441F4004105E0B0F8502010442A
:10173000227800EB0210A0F80C1421782846FFF75D
:10174000F8FD700458D42278296831F82200384016
:1017500040EA090021F822004EE062690244626119
:10176000E2690244E2612369226A9A4203D318467D
:10177000111A216204E00AB11046216284F8241093
:101780006278296812B1012A28D02FE0B1F85020E0
:101790001144227801EB0211B1F80C24C2F30902C2
:1017A000A1F80C2401F20C413E2807D94209C306D6
:1017B00000D1521E0B884BEA822207E048B1420852
:1017C000C30700D0521C0B880EEA822213430B8001
:1017D0000CE00A8842F400420A8007E0B1F8502089
:1017E0001144227801EB0211A1F80C04628983B242
:1017F0006169286804F074F82278296831F82200B9
:1018000048F6BF73184080F0300048F28003184358
:1018100021F822000020BDE8F09F2DE9F0410446A8
:101820000F0601F0070000EB800104EBC1014FF04F
:1018300001064FF0000502D54E74103103E081F827
:10184000515101F5A871022B08700A61CB7000D1CB
:101850000D7194F89002012809D084F890622068F4
:1018600003F05AFB284684F89052BDE8F08102202C
:10187000FBE710B501F0070404EB840100EBC101A4
:10188000C1E959230022C1F86C2181F8512181F866
:101890005041006801F5A87103F080FD002010BDE3
:1018A00070B504460D4601F007002179884201D940
:1018B000012070BD29064FF000064FF0010206D549
:1018C00000EB800104EBC1014A74103107E005EB25
:1018D000850104EBC10181F8516101F5A8718A709D
:1018E000087094F89002012807D084F890222068AC
:1018F00003F03BFD680702D006E0022070BD04F54E
:101900002671206803F0F3FC84F89062002070BD1B
:1019100010B501F0070404EB840100EBC101C1E93B
:101920000923012281F834200B630023CB624A741F
:1019300001F8104F006803F031FD002010BD0000D9
:101940001FB50446006803F0A9FF010403D5204633
:1019500001F005FF1FBD41050DD5206830F8441F7B
:1019600021F480610180204600F000F9002120462A
:1019700000F017F91FBD410405D5206830F8441F59
:1019800021F4804174E0810405D5206830F8441FBB
:1019900021F400516CE0C10414D5206830F8401FD8
:1019A00021F004010180206830F8401F21F0080177
:1019B0000180204600F0EDF8206830F8441F21F443
:1019C000805155E0010540D5D4F80020002069463B
:1019D00032F8203021F81030401CC0B20828F7D36C
:1019E00032F8400F40F001001080206830F8402F9E
:1019F00022F0010202802068B0F844205205FBD595
:101A000030F8442F22F4806202800020236831F8ED
:101A1000102023F82020401CC0B20828F6D32068EC
:101A200030F8401F41F008010180206830F8441F61
:101A300021F400610180206830F8401F41F004016A
:101A40000180204600F0E0F81FBD810509D520681F
:101A500030F8441F21F400710180204600F09DF809
:101A60001FBDC005FCD5206830F8441F21F48071EB
:101A700001801FBD2DE9F041040004D094F89102CB
:101A8000002518B107E00120BDE8F08184F89052EC
:101A9000204600F04DF8032084F89102657120681B
:101AA00003F01EFC94E80F0003F084FB022698BBB1
:101AB0000021206803F00CFF70BB002001270BE021
:101AC00000EB800104EBC1014F740874CD740D620A
:101AD0004D62401CC0B28D6221798142F0D8002055
:101AE00012E000BF00EB800104EBC10181F851510D
:101AF00081F8500181F85351C1F86051C1F8645127
:101B0000401CC0B2C1F8685121798142EAD894E8FA
:101B10000F0003F0DCFB10B184F89162B3E765734A
:101B200084F89172206803F0D0FB0020ACE700003D
:101B300008B50068A0F18041B1F5B84112D10A485A
:101B4000C16941F40001C161C06900F40000009066
:101B5000002211461420FFF79BFBBDE8084014202B
:101B6000FFF788BB08BD00000010024070B50446B6
:101B70000125A079022801D0FEF77AFE2946D4F883
:101B8000D40202F02DFFD4F8D402BDE8704002F078
:101B9000E8BED0F8D40202F00DBFD0F8D40202F0B3
:101BA00013BF10B5044690F8900201280AD0012016
:101BB00084F890026173206803F08CFE002084F8A2
:101BC000900210BD022010BDD0F8D42200F526717D
:101BD000104602F011BF10B5044690F8900201289B
:101BE00010D0012084F89002206803F048FE012103
:101BF0002046FFF79DFB206803F065FB002084F87A
:101C0000900210BD022010BD10B50446D4F8D402D5
:101C100002F033FFA07A002804D00348016841F0A5
:101C20000601016010BD000010ED00E010B5014696
:101C30000020234C012922D0022939D010291DD19E
:101C400061682268D20119D51E48C1F38342C903D5
:101C5000805C0AD561681B4AC1F34041921E515C09
:101C6000194AB2FBF1F1484301E018494843616861
:101C7000490203D440000321B0FBF1F010BD226AF9
:101C8000C2F30121012903D1920701D5C80310BD78
:101C9000022905D1626A920702D549F6404010BD7B
:101CA0000329FCD121688903F9D54FF2244010BDE6
:101CB00000F02AF96168C1F38131491C4900DBE772
:101CC00000100240DA67000800127A0000093D00A7
:101CD0002DE9F84305460078354CC00754D0E0693B
:101CE0000026C00008D4E06940F08050E061E0695F
:101CF000012600F0805000902E480168C90512D4DA
:101D00000168804641F480710160FFF755FA07468B
:101D100005E000BFFFF750FAC01B642823D8D8F8AD
:101D20000000C005F6D5206A10F4407021D0A988C3
:101D300001F4407181421CD0206A1F49012220F425
:101D400040700A6000220A602062C00711D0FFF7CD
:101D500033FA074641F2883808E000BFFFF72CFA53
:101D6000C11B414502D90320BDE8F883206A8007E2
:101D7000F4D5206A696820F44070084320621EB1DF
:101D8000E06920F08050E0612878800705D5606820
:101D9000A96820F44040084360602878C00605D553
:101DA0006068E96820F48000084360600020DBE799
:101DB0000010024000700040400442422DE9F0470C
:101DC0000F46050061D0434E306800F00700B8426E
:101DD00009D2306820F0070038433060306800F0E6
:101DE0000700B84251D128683B4C810712D5400703
:101DF00003D5606840F4E06060602878000703D590
:101E0000606840F4605060606068A96820F0F0008D
:101E1000084360602878C00728D06868012810D07F
:101E20002168022810D0890700292EDA616821F084
:101E3000030101436160FFF7BFF9804641F2883931
:101E40000DE021688903EFE78901EDE7FFF7B4F9B9
:101E5000A0EB0801494502D90320BDE8F08760687E
:101E6000696800F00C00B0EB810FEFD1306800F032
:101E70000700B8420BD9306820F0070038433060C3
:101E8000306800F00700B84201D00120E5E728786B
:101E9000400705D56068E96820F4E06008436060A9
:101EA0002878000706D56068296920F4605040EA68
:101EB000C100606000F038F86168084AC1F303119E
:101EC000515CC8400649086006480068FFF794F96D
:101ED0000020C2E70020024000100240EA6700082C
:101EE000140000200C0000200448054900684968DF
:101EF000044AC1F30221515CC8407047140000201D
:101F000000100240FA670008044805490068496863
:101F1000044AC1F3C221515CC8407047140000203C
:101F200000100240FA6700080E4A51680E4801F09E
:101F30000C03042B11D0082B0FD10C48C1F38343A1
:101F4000C903C05C0AD55168084AC1F34041921EDA
:101F5000515C054A5043B0FBF1F0704704494843D7
:101F6000704700000010024000127A00C8670008A5
:101F700000093D002DE9F84F040070D02078C04DD5
:101F8000C00749D06868C0F38100012807D068689D
:101F9000C0F38100022809D16868C00306D528680B
:101FA000800339D560680028E7D035E06068B0F577
:101FB000803F0BD010B1B0F5A02F11D0286820F4CD
:101FC00080302860286820F4802002E0286840F4EF
:101FD00080302860606890B1FFF7EEF806460AE0AE
:101FE000286840F480202860F0E700BFFFF7E4F89D
:101FF000801B642873D828688003F7D50CE0FFF7AE
:10200000DBF8064605E000BFFFF7D6F8801B642822
:10201000F0D828688003F7D420789A4E80074FF0D4
:1020200001094FF0000839D5686810F00C0F07D08F
:102030006868C0F38100022809D16868C00306D42B
:102040002868800714D52069012808D110E020698C
:10205000B0B1C6F80090FFF7AFF8074605E00AE117
:10206000FFF7AAF8C01B0228C4D828688007F7D554
:102070002868616920F0F80040EAC10028600DE09E
:10208000C6F80080FFF798F8074604E0FFF794F8D9
:10209000C01B022823D828688007F7D420780007BF
:1020A0002CD57948A169D9B1C0F80090FFF784F820
:1020B000074604E0FFF780F8C01B02280FD8686AC3
:1020C0008007F7D571484FF4FA510068B0FBF1F082
:1020D000009000BF0098411E0091FAD20EE080E00F
:1020E000C0F80080FFF768F8074604E0FFF764F8DF
:1020F000C01B022875D8686A8007F7D4207840078B
:1021000060D5E8690027C00008D4E86940F0805035
:10211000E861E869012700F0805000905C480168A0
:10212000C90513D40168834641F480710160FFF74B
:1021300043F8824606E000BFFFF73EF8A0EB0A0036
:1021400064284ED8DBF80000C005F5D5E06801280A
:102150000AD008B1052813D0286A20F001002862AF
:10216000286A20F0040002E0286A40F0010028629A
:10217000E06841F2883B98B1FFF71EF882460BE019
:10218000286A40F004002862EEE700BFFFF714F869
:10219000A0EB0A0159455AD8286A8007F6D50CE009
:1021A000FFF70AF8824605E0FFF706F8A0EB0A0100
:1021B00059454CD8286A8007F6D41FB1E86920F049
:1021C0008050E861E06988B36968C1F38101022940
:1021D00044D00228C6F8608004D0FEF7EDFF044624
:1021E00038E034E0FEF7E8FF074604E0FEF7E4FFDE
:1021F000C01B02282BD828688001F7D4206AB0F5CC
:10220000803F05D16868A16820F400300843686009
:10221000D4E908010843696821F47411084368602F
:10222000C6F86090FEF7C8FF044606E025E000BF50
:10223000FEF7C2FF001B022809D828688001F7D5E5
:102240001BE000BFFEF7B8FF001B022802D90320E5
:10225000BDE8F88F28688001F4D40EE00128F7D09B
:102260006868226A00F48031914204D1616A00F406
:102270007010884201D00120EAE70020E8E7000062
:10228000001002400000424280044242140000203C
:102290000070004070B5040009D0606A002540B1AC
:1022A00025616561A56294F8510040B10CE0012000
:1022B00070BD6068B0F5827FF4D0E561F2E784F824
:1022C0005050204600F040F8022084F85100206869
:1022D000016821F040010160A088218900F482702A
:1022E00001F404410843A18901F400610843217C01
:1022F00001F002010843217D01F001010843218B17
:1023000001F400710843217F01F03801084394F87B
:10231000201001F080010843218D01F40051084391
:1023200021680860A069042101EA10402168486022
:102330002068C16921F40061C1616565012084F8EC
:102340005100002070BD000030B585B0002400941D
:1023500001940294039400681449884223D11448DC
:10236000816941F480518161816901F48051049156
:10237000816941F00401816180690E4D00F0040023
:102380000490A02000900220019003200390694651
:102390002846FEF717FE4020CDE90004694628468E
:1023A0000294FEF70FFE05B030BD00000030014082
:1023B000001002400008014010B5401EB0F1807FBF
:1023C00001D3012010BD4FF0E02460610F216017A0
:1023D00003F0C4FA0020A06107202061002010BD96
:1023E0007047704770B590F83C20012A26D0012430
:1023F00080F83C40022280F83D2003685A689D68BE
:1024000022F070060A6832435A600D4B02689A4205
:1024100008D0B2F1804F05D00A4B9A4202D00A4B45
:102420009A4204D1496825F080031943916080F8ED
:102430003D40002180F83C10084670BD022070BD70
:10244000002C0140000400400008004010B50400CA
:1024500003D094F83D0010B107E0012010BD00202A
:1024600084F83C00204600F01FF8022084F83D006C
:10247000211D206801F050FC012084F8460084F8FA
:102480003E0084F83F0084F8400084F8410084F85E
:10249000420084F8430084F8440084F8450084F83E
:1024A0003D00002010BD000008B5114A0168114828
:1024B000914211D1C16941F00201C161C06900229C
:1024C00000F00200009011461D20FEF7E1FEBDE87D
:1024D00008401D20FEF7CEBE074A914207D1C169D0
:1024E00041F00401C161C06900F00400009008BD22
:1024F00000040040001002400008004090F83D1029
:10250000012901D001207047022180F83D100068A8
:102510000B49884208D0B0F1804F05D00949884264
:1025200002D00949884204D1816801F007010629D7
:1025300003D0016841F001010160002070470000F4
:10254000002C0140000400400008004090F83D10BD
:10255000012901D001207047022180F83D10016857
:10256000CA6842F00102CA6000680B49884208D07C
:10257000B0F1804F05D00949884202D0084988420D
:1025800004D1816801F00701062903D0016841F0F8
:102590000101016000207047002C01400004004050
:1025A0000008004070B5044690F83C000025012862
:1025B00017D0012684F83C60022084F83D00206892
:1025C000826822F0770222F47F42826008685028F5
:1025D00038D00DDC20284FD005DC90B3102811D165
:1025E0004AE0022070BD302846D040280AD13BE0A6
:1025F00060282FD070280DD0B0F5805F03D0B0F5E3
:10260000005F12D0012584F83D60002084F83C0072
:10261000284670BDCB68D1E90121206801F0C5FBD7
:102620002068816841F0770109E0CB68D1E9012198
:10263000206801F0BAFB2068816841F48041816024
:10264000E1E719E0CA684968206801F063FC50219D
:10265000206806E0CA684968206801F06CFC6021C7
:10266000206801F0ACFBCEE7CA684968206801F039
:1026700051FC40212068F4E7226801461046F0E74B
:1026800070472DE9F04104460068C66805694FF0BF
:102690000007A90713D5B10711D5F91E0161012063
:1026A0002077206880698007204602D0FFF7E8FF86
:1026B00004E000F07EF8204600F010F92777680764
:1026C00016D5700714D521686FF004000861022048
:1026D00020772068806910F4407F204602D0FFF701
:1026E000CFFF04E000F065F8204600F0F7F8277708
:1026F000280715D5300713D521686FF00800086149
:10270000042020772068C0698007204602D0FFF7A8
:10271000B7FF04E000F04DF8204600F0DFF827771F
:10272000E80616D5F00614D521686FF01000086190
:10273000082020772068C06910F4407F204602D02E
:10274000FFF79EFF04E000F034F8204600F0C6F8E2
:102750002777E80708D0F00706D021686FF001005E
:102760000861204600F00AF9280608D5300606D58B
:1027700021686FF0800008612046FFF731FE68068F
:1027800008D5700606D521686FF040000861204624
:1027900000F02CF9A8060AD5B00608D521686FF01C
:1027A000200008612046BDE8F041FFF71ABEBDE8F1
:1027B000F081704770B5044690F83C0000260D4645
:1027C00001280FD0012084F83C006AB1042A1DD0F2
:1027D000082A2FD00C2A3FD00126002084F83C0084
:1027E000304670BD022070BD206801F0F1FA20680B
:1027F000816941F0080181612068816921F004014B
:102800008161206881692A69114311E0206801F023
:1028100007FB2068816941F400618161206881695A
:1028200021F480618161206881692A6941EA02217D
:102830008161D2E7206801F01FFB2068C16941F087
:102840000801C1612068C16921F00401C1612068EB
:10285000C1692A69114311E0206801F039FB206841
:10286000C16941F40061C1612068C16921F48061DE
:10287000C1612068C1692A6941EA0221C161ACE7EE
:1028800010B5040003D094F83D0010B107E001201A
:1028900010BD002084F83C00204600F01EF8022005
:1028A00084F83D00211D206801F036FA012084F8EB
:1028B000460084F83E0084F83F0084F8400084F825
:1028C000410084F8420084F8430084F8440084F80E
:1028D000450084F83D00002010BD7047704700009F
:1028E00010B50446022249B104290ED0082913D09C
:1028F00094F84100012816D0012010BD94F83E0044
:102900000128F9D184F83E200FE094F83F00012817
:10291000F2D184F83F2008E094F840000128EBD180
:1029200084F8402001E084F841200122206801F071
:102930002FFA0F492068884203D1426C42F40042CA
:1029400042642068884208D0B0F1804F05D0094920
:10295000884202D00849884204D1816801F0070109
:10296000062903D0016841F001010160002010BD7B
:10297000002C01400004004000080040184910B538
:1029800088422BD1174C01216088401C80B26080A6
:1029900021701421B0FBF1F201FB120028B900F004
:1029A000C3F81149087000F0ADF860884FF47A71EF
:1029B000B0FBF1F201FB120000280FD1607848B1A2
:1029C000002060700021618030B1BDE8104001201E
:1029D00000F020B90120F4E70121F6E710BD000066
:1029E000900200200200002000000020704770B517
:1029F000040004D094F84100002510B106E0012045
:102A000070BD84F84050204600F024F8242084F85B
:102A100041002068C16821F40051C160204601F0E6
:102A20009DFA2068016921F49041016120684169A3
:102A300021F02A0141612068C16841F40051C16060
:102A40006564202084F8410084F84200656300201A
:102A500070BD000030B585B000240094019402944C
:102A6000039400681449884224D11448816941F4D0
:102A700080418161816901F480410491816941F063
:102A80000401816180690E4D00F0040004904FF450
:102A900000700090022001900320039069462846B0
:102AA000FEF790FA2815CDE90004694628460294FD
:102AB000FEF788FA05B030BD003801400010024032
:102AC00000080140FEE7F0B40023002A18D90A24C8
:102AD000302537269C46B4EB107F04D905EB1077E0
:102AE00001F8137003E006EB107701F81370000192
:102AF00001EB430787F801C05B1CDBB29342EAD3CA
:102B0000F0BC704706280CD2DFE800F003050B0B81
:102B1000070901F0B7B801F085B801F08BB801F0F2
:102B2000A5B87047704700002DE9F0471C4E0024FF
:102B30001C4D4FF00608A6F11807A14636F81410F0
:102B400057F82400FEF72EFB295D21B1012905D09D
:102B500002291ED119E0E0B901200CE0B8B9062C19
:102B600008D2DFE804F003050A0C0E10002000E094
:102B700001208046022028550BE00520F9E70420BB
:102B8000F7E70220F5E70320F3E7012801D105F874
:102B90000490641CE4B2062CD0D34046BDE8F08714
:102BA0001C6800081800002010B50B4A20B101284D
:102BB00004D0022808D109E0802101E04FF480719F
:102BC0001046FEF7EFFA20B1002010BD4FF400715F
:102BD000F6E7012010BD0000000C0140704710B561
:102BE00000240121204600F015F83220FEF7D8F924
:102BF000641CE4B2032CF4D302240021204600F02C
:102C000009F83220FEF7CCF9641E14F0FF04F4D169
:102C100010BD00000E4B50B101280ED0022816D175
:102C200099B100224FF400711846FEF7C0BA11B1F5
:102C300000228021F8E70122FBE721B15FF00002CA
:102C40004FF48071F0E70122FAE70122EAE77047CA
:102C5000000C014010B50020FFF7A6FF28B10021AD
:102C6000BDE810400020FFF7D5BF0121F8E70000C4
:102C70003EB500242C48009401942A490294016036
:102C80008915816004730475052505614FF42021C1
:102C90004460C161FDF706FF08B1FDF7E9FD00944E
:102CA00001240620CDE9014069461F48FDF778FE62
:102CB00008B1FDF7DDFD0094022469461A4801942D
:102CC000FDF76EFE08B1FDF7D3FD009403246946BD
:102CD00015480194FDF764FE08B1FDF7C9FD042015
:102CE000CDE9004069461048FDF75AFE08B1FDF7EE
:102CF000BFFD0920CDE900050720029069460A487A
:102D0000FDF74EFE08B1FDF7B3FD0748FDF7DCFD0A
:102D100008B1FDF7ADFD044905220C390248FDF765
:102D2000A9FF3EBD00240140C4010020094808B5A8
:102D3000416941F0010141614069002200F0010058
:102D4000009011460B20FEF7A3FABDE808400B20C7
:102D5000FEF790BA0010024030B585B0002432482A
:102D60000094019402940394816941F010018161FF
:102D7000816901F010010491816941F020018161B4
:102D8000816901F020010491816941F004018161B0
:102D9000816901F004010491816941F008018161B8
:102DA0008069224D00F00800049001224FF4C741D1
:102DB0002846FEF7FCF9002208212846FEF7F7F91D
:102DC0006814CDE90004694619480294FEF7FAF840
:102DD00049F26000CDE90004694628460294FEF7F6
:102DE000F1F84FF4C04000901120CDE90104032018
:102DF000039069462846FEF7E5F8A815CDE90004DA
:102E000069460C480294FEF7DDF84FF462700090BA
:102E10000120CDE901040220039069462846FEF70F
:102E2000D1F805B030BD000000100240000C014098
:102E30000010014000080140104810B50E49016023
:102E40004FF48271416000218160C1604FF40072D3
:102E50000161C0E905121022C0E9072141628162C7
:102E60000A21C162FFF716FA002803D0BDE810401E
:102E7000FDF7FEBC10BD000000300140380200200C
:102E800010B586B000241A4800940194029403946B
:102E900004941649059401604721C0E901144FF4D8
:102EA0007A71C0E9031480218161FFF7CFFA08B17C
:102EB000FDF7DEFC4FF48050009069460C48FFF7A8
:102EC00071FB08B1FDF7D4FC049404A908480594EB
:102ED000FFF788FA08B1FDF7CBFC0548FFF736FB92
:102EE000002801D0FDF7C4FC06B010BD000400406E
:102EF0009002002030B58DB0002407940894099406
:102F00000A940B941C2168460C94FDF724F926487A
:102F10002449802501604721C0E9011444F61F615E
:102F20008561C0E90314FFF791FA08B1FDF7A0FC31
:102F30004FF48050079007A91B48FFF733FB08B1F7
:102F4000FDF796FC1848FFF79BFC08B1FDF790FCD5
:102F50001020CDE90B050BA91348FFF743FA08B180
:102F6000FDF786FC6020009041F28830CDE9010435
:102F70000C2269460C480494FFF71CFC08B1FDF7CD
:102F800077FC0948FFF7BAFA08B1FDF771FC0C218C
:102F90000548FFF7A5FC002801D0FDF769FC0DB03E
:102FA00030BD000000080040D80200200C4810B5D9
:102FB0000A4901604FF4E1314160002181600C2237
:102FC000C160C0E904128161C161FFF710FD0028F2
:102FD00003D0BDE81040FDF74BBC10BD00380140E8
:102FE0002003002010B500220F49104801F084FB97
:102FF00008B1FDF73DFC0E490C4801F064FD08B135
:10300000FDF736FC0B49094801F08CF808B1FDF7D3
:103010002FFC064801F008FE002803D0BDE8104050
:10302000FDF726BC10BD000044000020481D002014
:10303000E4000020D0000020FEE700002DE9FE4360
:1030400000F092F8002333A2194603F0E9F9804614
:1030500000F08AF8002331A2194603F0E1F907468F
:1030600000F082F800232FA2194603F0D9F9054693
:1030700000F07AF800232DA2194603F0D1F9044696
:1030800000F088F800232A46214603F0A7F90446F9
:1030900000F06AF8234627A2012103F0C1F9064691
:1030A00000F062F8254B26A2002103F0B9F904468E
:1030B00000F070F80022214603F090F9044600F079
:1030C00053F823461EA2012103F0AAF9054600F099
:1030D0004BF81E4B1EA2002103F0A2F9044600F09B
:1030E00059F800210097CDE9018133462A4621464F
:1030F00003F074F9044600F037F8234616A20121C4
:1031000003F08EF915490860154980680860BDE82C
:10311000FE8300005265736574000000526F6F7487
:1031200000000000736C6F7700000000666173742C
:10313000000000005370656564000000493B000812
:1031400052656D6F74655F4144430000552C000863
:1031500053797374656D00004C45440040000020B5
:103160003C000020FEE700000849B1F90200962863
:1031700009DA401C00B24880054900EB400001EB31
:10318000C0001838704700200870704730000020D9
:10319000680700200949B1F90400642809DA401CD5
:1031A00000B28880064900EB800001EB80001438F3
:1031B0007047012008700020704700003000002098
:1031C0007815002010B504460A48B0F902108C4268
:1031D0000FD04480FF2C01DDFF2402E0002C00DA38
:1031E0000024812000F0AAFAE0B2BDE8104000F00F
:1031F000A5BA10BD2C00002010B50021074C0A46CE
:10320000002004EBC1131A54401C00B28028FADBE2
:10321000491C09B20829F3DB10BD00006803002037
:10322000F0B5002A38DD002B36DD002801DA002554
:1032300000E00546104402B2802A00DD802295425B
:103240002ADA002901DA002000E00846194409B210
:10325000402900DD402188421EDA1BE0C31700EB45
:10326000537626F00703C71A0123DFF830C0BB40AE
:10327000F6102C460CEBC61608E03719641C97F8BC
:1032800000C024B22CEA030C87F800C09442F4DB9F
:10329000401C00B28842E1DBF0BD00006803002062
:1032A00010B5064C012251032046FDF780FF204651
:1032B0000122BDE810409103FDF779BF000C0140E9
:1032C0002DE9F047164E002407464FF080084FF4D2
:1032D0008049751428FA04F0384201D0012200E038
:1032E000002249463046FDF762FF0122294630465A
:1032F000FDF75DFF002229463046FDF758FF641CAC
:10330000E4B2082CE6D3012229463046FDF74FFFF0
:1033100029463046BDE8F0470022FDF748BF0000CF
:10332000000C014070B501220B4D94032146284644
:10333000FDF73DFF0122560331462846FDF737FFD2
:10334000002221462846FDF732FF31462846BDE8D7
:1033500070400022FDF72BBF000C014070B50A4DF4
:103360004FF48044002221462846FDF720FF012229
:1033700051032846FDF71BFF21462846BDE8704053
:103380000122FDF714BF0000000C014010B5002021
:103390004FF47A740221491CA142FCDB401CA0427C
:1033A000F8DBFFF77DFFAE2000F0C8F9002000F049
:1033B000C5F9102000F0C2F9402000F0BFF9A120AB
:1033C00000F0BCF9C82000F0B9F9A62000F0B6F969
:1033D000A82000F0B3F93F2000F0B0F9D32000F0AE
:1033E000ADF9002000F0AAF9D52000F0A7F980205F
:1033F00000F0A4F9D92000F0A1F9F12000F09EF925
:10340000DA2000F09BF9122000F098F9DB2000F0A0
:1034100095F9402000F092F9202000F08FF9022069
:1034200000F08CF98D2000F089F9142000F086F965
:10343000A42000F083F9A62000F080F9AF2000F06E
:103440007DF99620FFF7BEFEFFF7D6FEAF2000F015
:1034500075F900200221491CA142FCDB401CA0425E
:10346000F8DB10BD0246012000E05043491EFCD2AB
:10347000704710B50C4640F0B00000F05FF9102026
:1034800040EA141000F05AF904F00F00BDE81040B3
:1034900000F054B908B5082B10D0062B17D0072B15
:1034A00021D00A2B1ED1154BC2EB021203EB4202B4
:1034B000A2F57072142300920A2211E0104B03EB64
:1034C0000212A2F5007210230092082208E00D4BB0
:1034D00002EB420203EB4202C03A009208230622AA
:1034E00000F014F808BD084BC2EBC20203EB420225
:1034F000A2F5E0720C2300920722F1E72868000889
:103500004A7300086C7E00083A7900082DE9FC4FE8
:103510001F46DDF82CA014000D4606467BD0002F78
:1035200079D07F2E77DC3F2D75DC002E00DA00206D
:10353000C0B2002D00DA002101F0FF0C31194A1E43
:103540007F2A01DD7F2100E0491ECAB2E9194B1E26
:103550003F2B01DD3F2100E0491EC9B2A1EB0C0366
:10356000121A6146521C5B1CFFF75AFE7F1EF917A8
:10357000002007EB51720121DFF8D89001EBE20740
:1035800043E000213DE0721812B205EBC0031BB20C
:10359000802A34D2002B32DB3F2B30DC4FEAE37C35
:1035A00003EB5C7E4FEAEE0809EBC81C0CEB020B48
:1035B00000FB04F29BF800C00AEB0108CDE9008291
:1035C00012F808202EF00708A3EB080E02FA0EF2FC
:1035D0004CEA020C08335A468BF800C03F2B0EDC35
:1035E00002F18008DDE900C29BF8803012F80C205F
:1035F000CEF1080C22FA0CF2134388F80030491C73
:10360000C9B2A142BFD3401CC0B28742B9DC002D71
:103610001EDA00201AE01BE031180AB2802A13D209
:103620006942CF1701EB5771CF100AEB000307FB7C
:10363000043321F007011B782944494219F802702C
:10364000CB403B4309F80230401CC0B2A042E3D358
:10365000BDE8FC8F680300202DE9F0471E46DDF829
:10366000208014008A468146434604D42B22FFF76B
:1036700011FF254603E02D22FFF70CFF65420024D1
:103680000A2714E0311B0A20491EFFF7EBFEB5FBA9
:10369000F0F0B0FBF7F107FB1102641C04FB08908B
:1036A00000B2434651463032FFF7F4FEE4B2B44272
:1036B000E8D3BDE8F0872DE9F0411E46154688465F
:1036C0000746002408E004FB067000B2334641467A
:1036D000FFF7E0FE641CE4B22A5D002AF3D1BDE8E6
:1036E000F081000070B5084D002400212046FFF74E
:1036F000C0FE05EBC410802100F008F8641CE4B2A1
:10370000082CF2D370BD00006803002070B50D4690
:103710000646FFF707FE7820FFF7D2FD4020FFF7AF
:10372000CFFD002404E0305DFFF7CAFD641CA4B2A5
:10373000AC42F8D3BDE87040FFF710BE10B50446A8
:10374000FFF7F0FD7820FFF7BBFD0020FFF7B8FD85
:103750002046FFF7B5FDBDE81040FFF7FFBD2DE99E
:10376000F84F044640F68F7B48F60F794FF4806897
:103770004FF0000ABDE1B0F8441011F00F0539D048
:1037800030F8256031047ED530F8251001EA0B01B0
:1037900041F0800120F8251005EB850004EBC007FF
:1037A00097F85C0107F5A87700286DD0F878022813
:1037B0006BD03978226832F8210048F68F731840B0
:1037C00048F2C003184322F821003978206830F805
:1037D0002120B0F8503052047DD5022202EBC10105
:1037E0005A1808EB4201415A8905890D009173D09E
:1037F0003A89DDE0C9062BD4018801EA090141F4C8
:1038000000410180206804F11005B0F85030217C9F
:10381000022202EBC1015A1808EB4201405AC0F3E0
:103820000900E062616A0844606200212046FDF7F9
:1038300080FD607B00289DD0A86900289AD1607B1C
:10384000216840F08000A1F84C0084F80DA050E100
:10385000018804F5A8750A0521D5B0F850202B7809
:10386000062101EBC3010A4408EB4201405A04F56A
:103870002671C0F30903EB61EA88206802F012F8B0
:103880002068018802E0AEE06EE07EE001EA0B0114
:1038900041F0800101802046FEF796F929E10904F4
:1038A000D5D5018801EA0B0141F080010180206833
:1038B000B0F850202B78062101EBC3010A4408EB35
:1038C0004201405A83059B0DEB6110D0696971B1CB
:1038D000EA88206801E05FE05DE001F0E3FFE9696C
:1038E00068690844686100212046FDF72BFD2168C6
:1038F00008880205ABD4C0F301300328A7D0B1F883
:1039000050000844B0F80C14C1F30901A0F80C14DD
:103910002A6900F20C403E2A09D95109D20600D189
:10392000491E02884FF4004343EA812109E0B2B105
:103930005108D20700D0491C02884FF6FF7303EAF2
:1039400081210A430280216808884BF68F7210405B
:1039500080F4405048F2800210430880C9E001889A
:1039600041F400410180EEE72068B0F850203B7838
:10397000062101EBC3010A4408EB4201415A8905C3
:10398000890D009118D0FA8812E032463946204657
:10399000FDF734FD00900FE0062202EBC1015A183A
:1039A00008EB4201415A8905890D009104D07A89BA
:1039B0007969009B01F076FFF86900990844F86185
:1039C0007969009808447861B86918B13969009834
:1039D000814204D939782046FDF7B4FC03E039462A
:1039E000206801F0DBFC30062ED505EB850004EBEA
:1039F000C001206830F8252002EA090242F40042A2
:103A000020F82520C87C103101281ED0F0056CD488
:103A10002068B0F850300D78022202EBC5021A443B
:103A200008EB4202805A8A69C0F30900824255D9E4
:103A3000121A8A6154D04A6902444A61CA69104420
:103A4000C861206801F0AAFC53E0C1F818A0087B07
:103A5000524608B3700620D5487810B1012812D01C
:103A60003AE02068B0F8502010440A7800EB0210C9
:103A7000B0F80424C2F30902A0F80424B0F8042426
:103A800042F4004206E02068B0F8503018440B7849
:103A900000EB0310A0F804241EE04B78206813B15B
:103AA000012B11D018E0B0F8502010440A7800EB38
:103AB0000210B0F80C24C2F30902A0F80C24B0F8EC
:103AC0000C2442F4004205E0B0F8503018440B7862
:103AD00000EB0310A0F80C24097802E0C1F818A04C
:103AE000E9B22046FDF725FC03E032462046FDF70B
:103AF000F8FC2068B0F8441009043FF53CAE002003
:103B0000BDE8F88F7047000030B50E490D884B882E
:103B10008A88CC8840F6FF71C5EB0525B5FBF1F529
:103B2000C3EB0323B3FBF1F3C2EB0222B2FBF1F2CE
:103B300045708370C270C4EB0422B2FBF1F10171D5
:103B400030BD0000B801002000B595B0FFF754FB70
:103B5000224823A21421B0F90030684601F0E4FEA7
:103B600020481FA21421B0F9003005A801F0DCFEA6
:103B70001D481BA21421B0F900300AA801F0D4FEA0
:103B80001A4817A21421B0F900300FA801F0CCFE9A
:103B9000082317A218210620FFF78DFD08236A4687
:103BA00020210620FFF787FD082305AA20217E207B
:103BB000FFF781FD082311A228210620FFF77BFDD6
:103BC00008230AAA30210620FFF775FD08230FAA53
:103BD00030217E20FFF76FFD15B000BD1E000020D4
:103BE0002564000020000020220000202400002086
:103BF0004C5F52656D6F74653A000000525F52650C
:103C00006D6F74653A000000044800210160802156
:103C100041708170C1700171704700002600002062
:103C200070470000024840680A3002F017BB0000ED
:103C3000380000200C4A5168B1F90A304868002168
:103C400001E04069491C9942FBDB002807D001785C
:103C500031B1012903D18068002800D0506070473D
:103C600080680028FBD000473800002004494868DD
:103C70000068002803D0C068002800D04860704762
:103C800038000020024840680A3002F0D7BA00002D
:103C900038000020FDF796BA30B593B02821684669
:103CA000FCF759FA14210AA8FCF755FA0024012060
:103CB0000F9410941194010412948DE81300049051
:103CC0000005CDE90810022507956846FEF752F970
:103CD000B0B90F20CDE90A056802CDE90C400121F9
:103CE0000AA80E94FEF76AF850B912200F906803E4
:103CF0001190000212900FA8FDF7EAFF002801D0F2
:103D0000FCF7B6FD13B030BD704700000148FEF768
:103D1000B8BC000090020020F0B50268194B1A4CA4
:103D20001A4D4FF08047984205D0B84203D0A042C8
:103D300001D0A84203D122F070064A68324398426B
:103D400005D0B84203D0A04201D0A84203D122F44A
:103D50004074CA6822434C6922F080022243026008
:103D60008A68C2620A688262984201D10969016365
:103D7000012141610169C90703D0016921F00101F5
:103D80000161F0BD002C014000040040000800402B
:103D900010B501F01F030121046A99408C430462AD
:103DA000016A9A401143016210BD10B5846842EA6D
:103DB000032224F47F440A432243826010BD8268B8
:103DC00022F070020A4342F0070181607047000050
:103DD00030B5036A026A22F0010202624268846915
:103DE00024F073050C682C4323F002058B682B43E9
:103DF0000A4DA8420BD123F00805CB6822F440728B
:103E00002B434D6923F0040315438A692A4342601A
:103E1000846149684163036230BD0000002C0140A9
:103E200030B5026A036A23F01003036243688469B1
:103E30000D6824F4E64444EA05248D6822F020024B
:103E400042EA05120B4DA8420ED1CD6822F0800245
:103E500042EA05124D6923F4406343EA85038D6904
:103E600022F0400243EA850343608461496881632C
:103E7000026230BD002C014030B5036A026A22F4B0
:103E8000807202624268C46923F4007324F07305EF
:103E90000C682C438D6843EA05230C4DA8420ED1D3
:103EA000CD6823F4006343EA05234D6922F44052B0
:103EB00042EA05128D6923F4806342EA05124260EA
:103EC000C4614968C163036230BD0000002C014039
:103ED00030B5046A026A22F4805202624268C36901
:103EE0000D6823F4E64343EA05238D6824F4005467
:103EF00044EA0534064DA84204D14D6922F48042BB
:103F000042EA85124260C36149680164046230BDBF
:103F1000002C014010B5036A046A24F00104046215
:103F2000846924F0F00444EA021423F00A020A43EC
:103F30008461026210BD10B5036A046A24F01004A3
:103F40000462846923F0A00324F4704444EA02323A
:103F500043EA01118261016210BD000070B50446A0
:103F600000680169E26821F440511143016121694F
:103F7000A0680843616908432168CA6841F20C637C
:103F80009A430243CA6020684169A26921F44071E2
:103F9000114341611E492068884202D1FDF7B4FFF8
:103FA00001E0FDF7A1FF00EBC00101EB001260682A
:103FB00064218000B2FBF0F3B3FBF1F36FF018065D
:103FC0007343B2FBF0F5B2FBF0F605EB8305322349
:103FD00003EB0515B5FBF1F5B6FBF1F605F0F005C1
:103FE00005EB0615B2FBF0F6B2FBF0F0B0FBF1F01A
:103FF0006FF01802504306EB800003EB0010B0FB9B
:10400000F1F0216800F00F002844886070BD0000C6
:1040100000380140D0F8B802002101750020704737
:1040200070B50546D5F8B842D5F8BC226178D2689B
:1040300020789047022322460121284600F088FC80
:10404000002070BD70B504468121204600F073FB4E
:104050000025E5620121204600F06DFBC4F86C519B
:10406000D4F8B80248B1D4F8BC0280688047D4F8CC
:10407000B80200F04BFFC4F8B852002070BD10B574
:10408000D0F8B8422169012908D1D0F8BC022378C0
:104090006178C2681846904700202061002010BD5A
:1040A0000A21018000487047AC01002029210180CD
:1040B000004870471C0100202921018000487047FA
:1040C0004801002029210180004870477401002028
:1040D00070B504460026022303228121204600F009
:1040E0002BFC0125E562022303220121204600F07A
:1040F00023FCC4F86C51182000F00AFFC4F8B80281
:1041000070B1054600202875D4F8BC02406880478D
:1041100002232A460121204600F01AFC304670BDD9
:104120000126FBE702460220002902D0C2F8BC1299
:104130000020704710B51346D0F8B82290F89CC202
:10414000BCF1030F0ED192F814C0BCF1000F01D0E6
:10415000012010BD4FF0010C82F814C00A468121E5
:1041600000F094FC002010BD38B5D0F8B832002221
:1041700000259446CDF800C0002491F800C01CF042
:10418000600C2FD0BCF1200F04D000F0ABF802245B
:10419000204638BD4A78921E0A2A1FD2DFE802F074
:1041A00011081E1E1E1E1E170D0588785860EFE7A9
:1041B0000122191D00F0BCF8EAE74888000A98605F
:1041C000E6E7012203F1080100F0B2F8E0E701227E
:1041D0001A61CA88194600F091F8D9E700F082F810
:1041E0000224D5E791F801C0BCF1000F0CD0BCF15E
:1041F000060F16D0BCF10A0F2FD0BCF10B0F3AD02E
:1042000000F070F80224C3E790F89C22032A03D040
:1042100000F068F80224BBE70222694600F088F843
:10422000B6E74B884FF0220CBCEB132F07D1CA889E
:10423000392A00D93922D0F8BC120D6809E04FF0B4
:10424000210CBCEB132F04D1104DCA88092A00D9C8
:104250000922294600F06CF89AE790F89C22032A7C
:1042600003D000F03FF8022492E7012203F10C0191
:1042700000F05EF88CE790F89C22032A03D000F04F
:1042800031F8022484E78878D86081E7A001002013
:1042900010B5D0F8B42252689047002010BD90F8B5
:1042A0009C22012A05D0022A03D0032A01D000F063
:1042B00019B84988012904D10021C0F8A41200F0DE
:1042C00044B8704710B513460A46002100F040FB81
:1042D000002010BD10B513460A46002100F0D6FBA1
:1042E000002010BD10B504468021204600F0B3FB2D
:1042F0002046BDE81040002100F0ADBB10B50323FF
:10430000C0F89432C0F85C21C0F8602113460A4618
:10431000002100F01DFB002010BD10B50521C0F8E4
:10432000941200231A46194600F012FB002010BD1B
:1043300010B50223C0F89432C261026213460A46E5
:10434000002100F0A3FB002010BD10B50421C0F82F
:10435000941200231A46194600F098FB002010BD65
:1043600010B5002806D00A46054906A000F090F9CD
:10437000034810BD0A46024902A000F089F9F7E798
:104380000C200020437573746F6D2048494420430E
:104390006F6E666967000000122008800048704751
:1043A0006400002010B5002806D00A46054906A082
:1043B00000F06EF9034810BD0A46024902A000F061
:1043C00067F9F7E70C200020437573746F6D204880
:1043D000494420496E74657266616365000000009F
:1043E00004200880004870476000002010B50A468D
:1043F000024903A000F04CF9004810BD0C20002039
:1044000053544D6963726F656C656374726F6E6946
:104410006373000010B5002806D00A46054906A0BF
:1044200000F036F9034810BD0A46024902A000F028
:104430002FF9F7E70C20002053544D3332205869F0
:10444000616F79755F47616D6570616400000000A0
:1044500010B51A200880FCF71BFA014810BD0000B7
:1044600078000020CA88012A01D0FFF73BBF90F8EE
:104470009C22012A05D0022A03D0032A08D0FFF784
:1044800031BF00218160012200F10801FFF750BF18
:104490000122011DFFF74CBF2DE9F84304460F46EA
:1044A00000200090002600257888010A082970D293
:1044B000DFE801F0AB040C22ABAB8B9AD4F8B0125E
:1044C000207C0A68694690470646A3E0207C4FF0AE
:1044D000020840B1D4F8B402C16A6846884706466B
:1044E00086F8018096E0D4F8B402816A684688476D
:1044F000064686F801808DE0C0B206285FD2DFE86C
:1045000000F0031221303F4FD4F8B002426822B1CC
:10451000207C6946904706467CE039462046FFF7F6
:10452000E1FE012576E0D4F8B002826822B1207C59
:104530006946904706466DE039462046FFF7D2FEB1
:10454000012567E0D4F8B002C26822B1207C694638
:10455000904706465EE039462046FFF7C3FE012538
:1045600058E0D4F8B002026922B1207C6946904735
:1045700006464FE039462046FFF7B4FE012549E0E4
:10458000D4F8B00242692AB1207C694690470646B9
:1045900040E03AE039462046FFF7A4FE012539E025
:1045A000D4F8B002826922B1207C69469047064661
:1045B00030E039462046FFF795FE01252AE03946CE
:1045C0002046FFF78FFE012524E0207C28B13946E4
:1045D0002046FFF787FE01251CE0D4F8B402416BAA
:1045E00068468847064615E0207C28B139462046B3
:1045F000FFF778FE01250DE0D4F8B402016B6846A0
:10460000884706460721717004E039462046FFF7C7
:1046100069FE0125002D12D1BDF8000048B1FA88CD
:104620003AB1824200D90246009231462046FFF755
:104630007FFEF888002802D12046FFF786FEBDE8FD
:10464000F88300210278002A05D0491CC9B2401C19
:104650000278002AF9D10846704790F89C22012A76
:1046600005D0022A03D0032A01D0FFF73BBECA8837
:10467000022A01D0FFF736BE0021C160D0F8A41293
:1046800009B10221C160022200F10C01FFF750BE06
:1046900070B504460D461646002C1AD02046FFF78A
:1046A000D0FF022101EB40003080307828700321D8
:1046B00002206970217800290BD0002214F8013BF8
:1046C000411CC9B22B54481CC0B26A54217800293D
:1046D000F4D170BD01460020002906D0012905D083
:1046E000022905D0032905D0022070470220704717
:1046F000012070470220704710B5002810D0D0F874
:10470000B43213B10023C0F8B43209B1C0F8B0120A
:10471000012180F89C12027000F0C6F8002010BD44
:10472000022010BD10B5D0F8C002FCF73AFEBDE87B
:104730001040FFF7CFBF10B5D0F8C002FCF70CFE59
:10474000BDE81040FFF7C6BF70B504469446002987
:1047500009D0D4F8B40242691AB194F89C02032833
:1047600059D0022070BD04F11400D4F89412002531
:10477000022904D0042940D000293ED041E0C3687A
:1047800001698B420DD9591AC1608AB2614620462F
:10479000FFF7A0FD00231A461946204600F0D8F87E
:1047A0002FE08068B0FBF1F201FB12029AB9884257
:1047B00011D3D4F8981288420DD200221146204617
:1047C000FFF788FDC4F8985200231A461946204680
:1047D00000F0BEF815E0D4F8B402C16829B194F82D
:1047E0009C02032801D1204688478021204600F002
:1047F00032F92046FFF791FD03E08021204600F0CA
:104800002AF994F8A002012807D1204600F064F9A3
:1048100084F8A05201E020469047002070BD10B5FA
:10482000044608461146002809D0D4F8B4128A6913
:104830001AB194F89C12032931D0022010BD04F55E
:10484000AA70D4F89432032B02D0052B1FD029E094
:10485000D0F810C0C36863450BD9A3EB0C03C36049
:104860000069834200D303469AB22046FFF72AFD2F
:1048700018E0D4F8B402016929B194F89C02032825
:1048800001D1204688472046FFF75FFD0AE000205F
:10489000C4F894020021204600F0DDF802E0014651
:1048A00020469047002010BD10B504461848C0F8B7
:1048B000D442C4F8C00217490160082101710221E5
:1048C000817100218172C1720173FDF7D3F808B1C3
:1048D000FBF7CEFF002218231146D4F8C002FCF7E4
:1048E00009FD582300228021D4F8C002FCF702FD04
:1048F000982300228121D4F8C002FCF7FBFCD823C6
:1049000000220121D4F8C002FCF7F4FC002010BD05
:1049100028210020005C004011F0800F01F07F0191
:10492000D0F8C00201EB810100EBC10001D0807C16
:10493000704790F85201704710B59C461346D0F866
:10494000C0026246FCF769FFBDE81040FFF7C2BE37
:1049500010B5D0F8C002FCF78CFFBDE81040FFF79F
:10496000B9BE70B504460022402311462046FFF729
:10497000E3FF0125C4F858514026C4F86461402380
:10498000002280212046FFF7D7FFA561666284F8E8
:104990009C520020C4F894026060C4F8A402D4F8C9
:1049A000B80228B1D4F8B4020021426820469047EA
:1049B000002070BD90F89C12042903D190F89D123C
:1049C00080F89C120020704710B590F89C120329C3
:1049D00004D1D0F8B412C96901B18847002010BDD4
:1049E00001740020704710B5D0F8C002FDF7D9F867
:1049F000BDE81040FFF76EBE10B5044604F52A70FE
:104A000000F04DF80120C4F89402B4F8AE02C4F8E6
:104A1000980294F8A81211F01F000AD001280ED0B5
:104A2000022812D001F08001204600F014F8002086
:104A300010BD04F52A71204600F0FBF8F7E704F5F5
:104A40002A71204600F02DFAF1E704F52A7120467C
:104A500000F02FF9EBE710B5D0F8C002FCF720FF0B
:104A6000BDE81040FFF736BE10B5D0F8C002FDF724
:104A7000B2F8BDE81040FFF72DBE90F89C1280F808
:104A80009D12042180F89C120020704710B5D0F8C8
:104A9000C002FCF73DFFBDE81040FFF71BBE0A78DF
:104AA00002704A7842708A78CB7802EB0322428007
:104AB0000A794B7902EB032282808A79C97902EB69
:104AC0000121C180704702460020002902D0C2F8AF
:104AD000B4127047022070470020704770B504463A
:104AE0008888002821D1C888F8B9488880281CD235
:104AF00000F07F0594F89C0203280DD084F89E52A4
:104B000029462046FFF76FFF2046FFF71EFC45B100
:104B1000022084F89C0270BD2046BDE87040FFF77B
:104B2000E1BB012084F89C0270BD2046BDE87040C6
:104B3000FFF7D8BB10B50224D0F8B422002A03D066
:104B40001268904700B90024204610BD70B5044695
:104B50000D46304EA9783170012905D929462046E5
:104B6000BDE87040FFF7BEBB94F89C0202280BD052
:104B7000032823D029462046FFF7B4FB317820468E
:104B8000BDE87040FFF784BB99B16160032084F8F1
:104B90009C022046FFF7CEFF022804D02046BDE845
:104BA0007040FFF7D2BB29462046BDE87040FFF7B2
:104BB00099BB2046BDE87040FFF7C7BB91B1606864
:104BC000884221D0C1B22046FFF762FB3178616094
:104BD0002046FFF7AFFF022810D02046BDE8704006
:104BE000FFF7B3BB022084F89C0261602046FFF708
:104BF0004FFB2046BDE87040FFF7A7BB2946204683
:104C0000BDE87040FFF76EBB2046BDE87040FFF77F
:104C10009CBB0000E00000204988012903D1C0F8B6
:104C2000A412FFF792BB704710B5FFF71DFF0020DD
:104C300010BD10B503460024087810F060020ED0B5
:104C4000202A06D0402A04D01846FFF74BFB204606
:104C500010BDD3F8B402826818469047F7E7487849
:104C60000A2822D2DFE800F0151D211921090521AB
:104C7000110D1846FFF710FCE9E71846FFF72EFF65
:104C8000E5E71846FFF762FFE1E71846FFF7EAFBA2
:104C9000DDE71846FFF7E1FCD9E71846FFF7BCFF50
:104CA000D5E71846FFF7FBFAD1E71846FFF71AFBDE
:104CB000CDE72DE9F0410446084600260179037846
:104CC00013F0600211D0202A08D0402A06D00146F5
:104CD0002046FFF707FB3046BDE8F081D4F8B41258
:104CE0008A68014620469047F5E703F06002202AD3
:104CF0000BD04278002A61D0012A37D0032A0CD089
:104D000001462046FFF7EEFAE5E7D4F8B4128A68C8
:104D100001462046BDE8F041104794F89C22022A43
:104D200006D0032A14D001462046FFF7DBFAD2E76B
:104D300049B1802907D02046FFF78DFE802120460B
:104D4000FFF789FEC7E701462046FFF7CBFAC2E727
:104D500042883AB931B1802904D0C08810B92046C0
:104D6000FFF779FE2046FFF7F0FAB4E794F89C22AB
:104D7000022A06D0032A14D001462046FFF7B2FAD1
:104D8000A9E749B1802907D02046FFF764FE8021BA
:104D90002046FFF760FE9EE701462046FFF7A2FA95
:104DA00099E74088002896D111F07F0F02D0204665
:104DB000FFF7B8FC2046FFF7C8FA8CE794F89C226E
:104DC0000027022A06D0032A26D001462046FFF7F4
:104DD00089FA80E731B1802904D001462046FFF7E7
:104DE00081FA78E711F0800F08D001F07F0000EB26
:104DF000800004EB800000F1140107E001F07F0067
:104E000000EB800004EB800000F5AA710F60022225
:104E10002046FFF78DFA5EE711F0800F0CD001F00D
:104E20000F0202EB820204EB820292696AB9014628
:104E30002046FFF757FA4EE701F00F0202EB82021D
:104E400004EB8202D2F858215AB111F0800F0DD034
:104E500001F07F0000EB800004EB800000F11405FE
:104E60000CE001462046FFF73DFA34E701F07F00F1
:104E700000EB800004EB800000F5AA7541B18029A9
:104E800006D02046FFF748FD20B10120286002E04F
:104E90002F6000E02F60022229462046FFF748FAE3
:104EA00019E770B505460C46207810F0600209D06D
:104EB000202A07D0402A05D021462846FFF712FABB
:104EC000002070BD95F89C22012A08D0022A06D045
:104ED000032A04D021462846FFF704FAF0E7207998
:104EE00001280ED8D5F8B40221468268284690479A
:104EF000E1880029E4D10028E2D12846FFF725FA0D
:104F0000DEE721462846FFF7EDF9D9E770470000B4
:104F1000004870470C2100202DE9F0470C7800264E
:104F200030F8243048F68F121340CA78002A78D01F
:104F3000012A7CD0022A02D0032A75D0012648F229
:104F40008002134320F824300D7830F8253048F6DD
:104F50008F7423402B43134320F825300D7B48F2F8
:104F6000C00948F6BF734CF2800A4BF68F77EDB359
:104F7000CD7891F800C0022D30F82C507DD048F645
:104F80008F6805EA0805154320F82C50B0F85050FA
:104F900091F800C0054405EB0C15B1F808C02CF0E1
:104FA000010CA5F800C4B0F8505091F800C00544B9
:104FB00005EB0C15B1F80AC02CF0010CA5F808C4DB
:104FC0004D78002D7ED00D7830F825C05FEA4C4C2E
:104FD00007D530F825C00CEA040C4CEA0A0C20F87E
:104FE00025C091F800C030F82C5000E022E06D069A
:104FF00006D530F82C50254045EA090520F82C50FC
:10500000CC780D78012C30F8254004EA03047CD0DC
:1050100084F02003134320F82530C1E001E006E0CE
:1050200002E043F400738AE743F4C06387E743F484
:10503000806384E74D784DB3B0F850500F78054445
:1050400005EB0715CF8827F00107A5F800740F7846
:1050500030F827506D0606D530F82750254045EA30
:10506000090520F82750CC78012C07D00C7830F8AF
:105070002410194081F0200104E064E00C7830F83D
:1050800024101940114320F8241090E0B0F850305B
:105090000D78034403EB0513CD8825F00105A3F833
:1050A0000854B0F850300D78034403EB0513B3F8FF
:1050B0000C54C5F30905A3F80C540D6903F20C4315
:1050C0003E2D00E045E00BD94FEA551CED0601D11D
:1050D000ACF1010C1D884FF4004848EA8C2C0BE021
:1050E00035B34FEA550CED0701D00CF1010C1D88CA
:1050F0004FF6FF7808EA8C2C45EA0C051D800D78E8
:1051000030F825305B0408D500E046E030F8253063
:10511000234043EA0A0320F82530097861B130F8CA
:1051200021303B4083F40053134320F821303EE00C
:105130001D8845F40045E1E70188394081F440517C
:105140001143018033E0254048F2801845EA080504
:105150001AE791F800C030F82C506D0406D530F8ED
:105160002C50254045EA0A0520F82C5091F800C043
:1051700030F82C506D0606D530F82C50254045EA05
:10518000090520F82C500D7830F825403C4084F477
:105190004054144320F8254070E7144320F825407C
:1051A0000B7830F823103940114320F82310304693
:1051B000BDE8F087002070472DE9F04391F80C809E
:1051C0004F780A7848F6BF7C4BF68F7948F2800317
:1051D00048F2C0054CF2800648F68F74B8F1000F13
:1051E00028D0002F30F822704FEA474748D0002FD0
:1051F00005DA30F822702740374320F822700A7809
:1052000030F822707F0605D530F8227027402F43F2
:1052100020F822700D7830F825202240324320F803
:1052200025200C7830F8242002EA0C021A4320F8DA
:1052300024201AE07FB130F82260760605D530F8D8
:10524000226026402E4320F822600A7830F822108F
:1052500001EA0C010EE030F822506D0405D530F85B
:1052600022502540354320F822500A7830F8221089
:1052700001EA0901194320F822100020BDE8F0835B
:10528000002F05DA30F822702740374320F82270CB
:105290000A7830F82260760605D530F8226026407C
:1052A0002E4320F822600E7830F8262022402A4330
:1052B00020F826200C7830F8242002EA09021A434C
:1052C00020F82420C1E7002070470020704701210A
:1052D00020F8401F0021018081800182084670472C
:1052E00030F8401F21F43F4101800020704700202A
:1052F000704730B50A7BB2BB4A7848F68F7548F2E2
:105300008004C2B10B7830F82320520607D530F85C
:1053100023202A4048F2C0052A4320F82320CA78D7
:10532000012A20D00A7830F8221048F6BF731940BD
:1053300081F0200114E00A7830F822305B0407D5B0
:1053400030F822302B404CF280052B4320F82230DD
:105350000A7830F822104BF68F73194081F44051CF
:10536000214320F82210002030BD10B54A7809787A
:10537000002A48F2800330F8212005D048F6BF7497
:10538000224082F0100204E04BF68F74224082F437
:1053900080521A4320F82120002010BD2DE9F0474B
:1053A0000D464B78097B04464FF0000948F68F7292
:1053B00048F2800A4FF400474FF6FF78012B09D0DE
:1053C00000296FD0E87802286DD001286CD0012028
:1053D000BDE8F087AE692869864200D9064691B1DA
:1053E000E97802291ED0286A801B2862287834F8C0
:1053F00020104906B4F85010214401EB001073D579
:10540000A0F80C6416E1B3B2EA882046696900F09E
:1054100067FAB4F850002978204400EB0110A0F896
:1054200004640DE1296A814277D9297834F8210092
:10543000104048F28012104324F82100286A801B93
:105440002862287834F820104906697871D511B19E
:1054500001292AD030E0B4F85010214401EB0010AB
:10546000B0F80C14C1F30901A0F80C1400F20C40C0
:105470003E2E07D97109F20600D1491E028847EA7B
:10548000812107E04EB17108F20700D0491C028863
:1054900008EA81210A4302800EE0018841F40041BC
:1054A000018009E0F1E020E195E1B4F85020111904
:1054B00001EB0010A0F80C646A89B3B22046696958
:1054C00000F00EFA6869304468612969286A8842E8
:1054D00002D9801B286202E00646C5F82090687851
:1054E00018B101282BD032E02FE0B4F85000297811
:1054F000204400EB0110B0F80414C1F30901A0F836
:10550000041400F204403E2E08D97109F20600D1BD
:10551000491E028847EA812108E0A1E056B17108DE
:10552000F20700D0491C028808EA81210A43028060
:105530000DE00EE0018841F40041018007E0B4F87D
:1055400050002978204400EB0110A0F804642A8957
:1055500071E011B1012927D02DE0B4F85010214499
:1055600001EB0010B0F80414C1F30901A0F8041411
:1055700000F204403E2E07D97109F20600D1491EFF
:10558000028847EA812107E04EB17108F20700D096
:10559000491C028808EA81210A4302800BE0018845
:1055A00041F40041018006E0B4F85010214401EBC1
:1055B0000010A0F804642A89B3B22046696900F09B
:1055C0008FF96869304468612969286A884202D97C
:1055D000801B286202E00646C5F82090687810B16A
:1055E000012836D026E0B4F850002978204400EB9A
:1055F0000110B0F80C14C1F30901A0F80C1400F26A
:105600000C403E2E07D97109F20600D1491E0288CE
:1056100047EA812107E04EB17108F20700D0491C2A
:10562000028808EA81210A43028003E0018841F4EC
:10563000004101806A89B3B22046696900F050F9DF
:10564000297834F8210048F6BF72104080F030000D
:105650000FE1B4F850100819297800EB0110CFE6DB
:105660002A7834F8220048F68F63184040EA0A008E
:1056700024F82200B4F850002A78204400EB0210ED
:105680008BB2A0F804342A89D6E7A9692869814237
:1056900002D9091AA96102E00846C5F81890B4F8C1
:1056A00050102A78214401EB0211B1F80C24C2F306
:1056B0000902A1F80C2401F20C413E287DD94209CF
:1056C000C00600D1521E088847EA82220AE00888F4
:1056D00040F4004007E04208C00700D0521C088890
:1056E00008EA822210430880BBE033BBB4F85000C4
:1056F0002978204400EB0110B0F80414C1F309012B
:10570000A0F80414296900F204403E2907D94B0986
:10571000C90600D15B1E018847EA832307E041B137
:105720004B08C90700D05B1C018808EA8323194392
:1057300002E0018841F400410180687810B101283D
:1057400028D030E0B4F850002978204400EB011054
:10575000B0F80C14C1F30901A0F80C14296900F287
:105760000C403E2907D94B09C90600D15B1E0188B0
:1057700047EA832307E041B14B08C90700D05B1C0F
:10578000018808EA8323194302E0018841F40041BB
:10579000018008E0B4F850100819297800EB0110D6
:1057A000298AA0F80C14E869C0B3297834F82100DC
:1057B000430401D5430605D400E046E044F240032B
:1057C00018424ED134F82100104048F2C002104374
:1057D00024F8210045E0A9692869814202D9091A03
:1057E000A96102E00846C5F8189013BBB4F8501040
:1057F0002A78214401EB0211B1F80424C2F3090212
:10580000A1F8042401F204413E2808D94209C30644
:1058100000D1521E0B8847EA822208E021E078B1CD
:105820004208C30700D0521C0B8808EA82221343A7
:105830000B80697800293FF42EAF012909D010E0D0
:105840000A8842F400420A80F3E700287FF443AF5D
:105850003DE7B4F8502011192A7801EB0211A1F8A4
:105860000C04297834F821004BF68F72104080F434
:10587000405040EA0A0024F821000020A8E5002159
:10588000A0F844104FF43F41A0F8401000207047AA
:105890000148FCF755B8000028210020B0F844006A
:1058A0007047000010B500EB42005C0800F5806016
:1058B00009D000BF30F8042B01F8012B120A01F8BF
:1058C000012B641EF6D1DA0701D00088087010BDE4
:1058D0000020704711B98021A0F84C1000207047BB
:1058E00010B55B1C00EB42005B0800F5806009D03E
:1058F00011F8012B11F8014B42EA042220F8042B85
:105900005B1EF5D110BDFEE710B5FDF767F9FDF799
:1059100066F9FAF789FFFDF705F9FEF775F9FDF766
:105920008DFB012010BD00000FB47CB50C0009AD4B
:1059300001D0611E00E00021CDE90001064B6A465E
:105940002946089800F0ECF8002C02D0009A0021BB
:1059500011707CBC5DF814FB276200080907090E72
:10596000002804DB00F1E02080F80014704700F00C
:105970000F0000F1E02080F8141D704702E008C815
:10598000121F08C1002AFAD170477047002001E0B9
:1059900001C1121F002AFBD1704700002DE9FF5FF3
:1059A00082B00021DDE90430020DDDF840B0034390
:1059B00018D044F61050A2F2FF3242431514119849
:1059C00001281FD0A5EB0B00401C5FEA000A4FF036
:1059D00000064E4FDFF83891B046504615D5CAF153
:1059E000000413E0119801244AA3012801D16FEAB1
:1059F0000B010298119AC0E90031C0E9024206B0D9
:105A0000BDE8F09FCBF10000DFE704460021404AEB
:105A1000491842EB0450CDE9001012E0E00707D02E
:105A200032463B4640464946FAF747FC804689469F
:105A300032463B4610461946FAF73FFC06460F46EB
:105A40006410002CEAD1DDE90401DDE90023BAF19C
:105A5000000F06DAFAF731FC42464B46FAF72DFC06
:105A600005E0FAF79CFC42464B46FAF798FC0446E0
:105A70000E460022284BFAF701FD03D84FF0FF3005
:105A8000014607E00022254B20463146FAF76EFB1F
:105A9000FAF7D1FD102409E0002C0ADB0A220023CA
:105AA000FAF71AFD039B30321A55641E50EA0102C0
:105AB000F2D1641C039AC4F111031444119A012A0F
:105AC00003D0012208430DD10AE0084304D000208E
:105AD0004FF0110B119072E7A3EB0B056D1E0DE05B
