:020000040800F2
:10000000202800200101000845460008E13C0008C6
:1000100075440008E90B0008A97C000800000000F6
:10002000000000000000000000000000715F0008F8
:10003000050C000800000000E959000835600008C0
:100040001B0100081B0100081B0100081B01000820
:100050001B0100081B0100081B0100081B01000810
:100060001B0100081B0100081B010008F90B000818
:100070001B0100081B0100081B0100081B010008F0
:100080001B0100081B0100081B0100081B010008E0
:10009000317B00081B0100081B0100081B01000840
:1000A0001B0100081B0100081B0100081B010008C0
:1000B0001B010008196100081B0100081B01000852
:1000C0001B0100081B0100081B0100081B010008A0
:1000D0001B0100081B0100081B0100081B01000890
:1000E0001B0100081B0100081B010008DFF80CD0F1
:1000F00000F0B0FB00480047397D000820280020B0
:100100000648804706480047FEE7FEE7FEE7FEE7B1
:10011000FEE7FEE7FEE7FEE7FEE7FEE71561000803
:10012000ED000008D2B201E000F8012B491EFBD21D
:1001300070470022F6E710B513460A4604461946F2
:10014000FFF7F0FF204610BD80EA010210B502F073
:100150000043400022D04A001FD0010E01EB126183
:10016000C0F35600C2F3560240F4000042F400020D
:10017000A0FB022000047F39140400D0401C50EA88
:10018000124001D44000491EC2B20C0604EBD0104C
:10019000401C4008802A02D003E0002010BD20F05F
:1001A0000100002900DA0020184310BD30B480EAB5
:1001B000010202F0004530F0004221F0004013D06F
:1001C00090B1C30DD40DC2F31601C0F31600E41AAA
:1001D00041F4000140F400027D34914201D3641CDB
:1001E00000E04900002C02DA30BC002070474FF4D8
:1001F00000000023914201D3891A034340084FEACB
:100200004101F7D151B1914202D14FF0004105E0D7
:1002100002D24FF0010101E06FF0010103EBC45085
:10022000284430BC00F022BA2DE9FE4F804681EA16
:100230000300C00F0C46009021F0004123F0004560
:10024000B8EB0200A94105D24046214690461C4623
:100250000B46024623F00040104347D0270DC7F35A
:100260000A00C3F30A510290401A019040286BDA49
:10027000C3F3130040F4801B0098924620B1002382
:10028000D2EB030A63EB0B0B01985946C0F1400215
:10029000504600F0BAF906460D4650465946019AB6
:1002A00000F0D2F910EB08006141002487EA1152F6
:1002B00084EAE7731A4340D0009A62B3019A012A94
:1002C0004FEA075215DC001B61EB02014FF00042C0
:1002D00002EA0752CDE90042001C41F58011324686
:1002E0002B4600F038FA03B0BDE8F08F40462146B7
:1002F000F9E7001B61EB0201001C41F580130018B7
:100300005B412018A2F5001747EB030140EAD570C6
:10031000B6196D4111E06D084FEA360645EAC07521
:100320004FEA0752001B61EB0201001C41F58011EE
:1003300049084FEA30000019514132462B4603B0BC
:10034000BDE8F04F00F0F8B900980122400000230A
:10035000D0EB020263EBE073009821464FEAE074B1
:10036000B8EB000061EB0401E9E783F000435BE7D1
:1003700081F0004158E72DE9FE4F81EA030404F0C3
:10038000004421F0004100944FF0000B23F00043A3
:1003900050EA01045ED052EA03045BD0C3F30A546E
:1003A000C1F30A552C44A4F2F3340194A0FB025487
:1003B000C1F3130141F48011C3F3130343F4801319
:1003C00001FB024400FB034E840A970A44EA81546D
:1003D00047EA8357A4FB076802958D0A05FB07854A
:1003E0004FEA932C04FB0C542705029D4FEA065854
:1003F00047EA1637B5EB08056EEB070C870E920E31
:1004000047EA811742EA8312A7FB0201B6EB0B0110
:1004100064EB00042B0D43EA0C335E1844EB1C50D4
:10042000DA465146E7FB0201C5F313044FEA0B33EA
:1004300043EA14534FEA0432019C43EA0603A4F151
:100440000C040294009CCDE900B400F084F903B0E0
:10045000BDE8F08F00200146F9E72DE9F04D81EA73
:10046000030404F0004B21F0004514464FF0000A4D
:1004700023F0004150EA050220D054EA01021DD0C9
:10048000C5F30A570246C5F31303C1F31300C1F3C2
:100490000A5640F4801543F48013A7EB0608101B9E
:1004A000D64608F2FD3873EB050002D308F10108C7
:1004B00001E092185B41B8F1000F03DA0020014619
:1004C000BDE8F08D00204FF48011064684460EE012
:1004D000171B73EB050705D3121B63EB05030643DC
:1004E0004CEA010C49084FEA300092185B4150EA8F
:1004F0000107EDD152EA030012D082EA040083EA38
:100500000501084305D0101BAB4106D20122002390
:1005100006E000224FF0004302E06FF001025310AA
:100520001AEB06004CEB085110EB0A0041EB0B01F3
:10053000BDE8F04D00F000B9C10F80EAE07008445A
:10054000CA079623002100F09AB800F0004220F07C
:100550000040C10DC0F3160040F400007F2901DA0D
:1005600000207047962903DCC1F19601C84001E0E4
:1005700096398840002AF4D04042704730B50B4687
:10058000014600202022012409E021FA02F59D42C3
:1005900005D303FA02F5491B04FA02F52844151E97
:1005A000A2F10102F1DC30BD2DE9F05F054600202B
:1005B00092469B4688460646814640241BE02846D4
:1005C00041464746224600F02FF853465A46C01A85
:1005D000914110D311461846224600F016F82D1A04
:1005E00067EB01084F4622460120002100F00DF87C
:1005F00017EB00094E41201EA4F10104DFDC484640
:1006000031462A464346BDE8F09F202A04DB203AC3
:1006100000FA02F1002070479140C2F1200320FA55
:1006200003F3194390407047202A04DB203A21FA53
:1006300002F00021704721FA02F3D040C2F12002FB
:100640009140084319467047202A06DBCB17203A11
:1006500041FA02F043EAE07306E041FA02F3D040C7
:10066000C2F1200291400843194670470029A8BFF3
:100670007047401C490008BF20F00100704710B4CB
:10068000B0FA80FC00FA0CF050EA010404BF10BC80
:10069000704749B1CCF1200421FA04F411FA0CF1AD
:1006A00018BF012121430843A3EB0C01CB1D4FEAE6
:1006B00000614FEA102042BF002010BC704700EBE1
:1006C000C35010440029A4BF10BC7047401C49000F
:1006D00008BF20F0010010BC7047F0B4002802DC15
:1006E000F0BC00207047C0F3C751C0F3160040F4BF
:1006F0000000CA0701D14000491E3F2202EB6105FC
:10070000002211464FF4000626FA01F31344D418D0
:10071000844201D8001B1A464000491C1729F3DD0A
:100720005100814202D24FF0FF3100E0002102EB84
:10073000C550F0BCFFF79ABF10B5141E73F100044A
:1007400008DA401C41F1000192185B411A4301D1C3
:1007500020F0010010BD2DE9F04D92469B4611B1ED
:10076000B1FA81F202E0B0FA80F220329046FFF74F
:100770004CFF04460F4640EA0A0041EA0B0153468B
:100780005A46084313D0114653EA010019D0C8F164
:1007900040025046FFF748FF05460E465046594670
:1007A0004246FFF732FF084305D0012004E020460F
:1007B0003946BDE8F08D0020054346EAE0762C433B
:1007C00037430A986305E40AA0EB08000022FD0AFB
:1007D00044EA47540A3002D500200146E9E7010502
:1007E00010196941DDE9084500196941BDE8F04D7E
:1007F000A2E7C1F30A52C1F3130140F2FF3341F4FF
:1008000080119A4202DA00200146704740F23343D9
:100810009A42A2F2334202DC5242FFF705BFFFF7D1
:10082000F4BE000030B5041E71F1000404DB4FF08B
:100830000044404264EB0101141E73F1000405DB27
:100840001C464FF00043524263EB0403994208BF39
:10085000904230BD1CB509480090094801900546FA
:10086000009C06E0E06840F0010394E80700984728
:100870001034AC42F6D3FFF73DFC000080A4000822
:10088000A0A4000870B58C1810F8015B15F00703E0
:1008900001D110F8013B2A1106D110F8012B03E019
:1008A00010F8016B01F8016B5B1EF9D12B0705D421
:1008B0000023521E0DD401F8013BFAE710F8013B6A
:1008C000CB1A921C03E013F8015B01F8015B521E86
:1008D000F9D5A142D8D3002070BD0000B0B50446C0
:1008E00000688168C90709D0816821F00101816031
:1008F00000F042FF21688968C90701D10020B0BD1E
:10090000054602E08068C007F8D000F035FF411BC3
:1009100020680329F6D38168C907F3D0A06A40F0A4
:100920001000A062E06A40F00100E0620120B0BD6A
:100930000146406A826A12F0500F03D0006A026BCF
:10094000084610470168826A42F400728262896830
:1009500001F46021B1F5602F01D1017B11B100F0EC
:10096000D1BA00BF816A21F480718162816AC904B1
:1009700048BF00F0C7BA816A41F00101816200F00E
:10098000C1BA0000406A816A41F040018162C16AD7
:1009900041F00401C16200F0B9BA0000406A00F001
:1009A000B3BA0000B0B582B00446002001902168BF
:1009B0008A68D2074BD1886840F00100886040F215
:1009C0008000C2F2000000684DF68361C4F21B3162
:1009D000A0FB0101880C01900198A0B10198013899
:1009E0000190019878B1019801380190019850B1B7
:1009F000019801380190019828B1019801380190BF
:100A000001980028EAD100F0B7FE21688968C9077B
:100A10001CD1054603E000BF8068C00716D100F076
:100A2000ABFE411B20680329F6D38168C907F3D1C7
:100A3000A06A40F01000A062E06A40F00100E062AD
:100A4000002084F82400012002B0B0BD002002B0D4
:100A5000B0BD000040F2382CC2F2000C9CF800003F
:100A6000421E052A88BF704710B540F2A013C2F29B
:100A70000003B3F800E059889888DB88DFE802F0CB
:100A8000046A3654208200BF4FEA5E10182800F234
:100A900096804809182800F29280BCF802000130C4
:100AA00082B20A2AACF80200C0F08C8040F20C003E
:100AB000C2F20000A0F800E0818002207DE000BFCB
:100AC000B0F5486F88BFB3F5486F78D9BCF802100D
:100AD00001318AB20A2AACF8021073D340F20C0139
:100AE000C2F20001C8814B82062066E0AEF20970B6
:100AF000B0F5C77F63D8B1F5E16F60D940F69700D4
:100B000081425CD8BCF80200013082B20A2AACF8FB
:100B1000020057D340F20C00C2F20000A0F808E037
:100B20004181042049E000BF4109182947D85909EB
:100B3000182944D8BCF8021001318AB20A2AACF84C
:100B400002103FD340F20C01C2F2000188810B82F7
:100B5000052032E0BEF5486F88BFB1F5486F2ED949
:100B6000BCF80200013082B20A2AACF8020029D394
:100B700040F20C00C2F20000A0F802E0C1800320A5
:100B80001BE000BFA0F20971B1F5C77F17D8B3F51C
:100B9000E16F14D940F697018B4210D8BCF80210CF
:100BA00001318AB20A2AACF802100BD340F20C01D0
:100BB000C2F2000188820720CB828CF8000000205E
:100BC000ACF80200BDE8104070470000704700001C
:100BD0000138B0FA80F0420940F60040C4F201004A
:100BE000082100F0C3BD0000FEE7000000207047B0
:100BF000002070470020704742F21000C2F200004F
:100C000000F030BB7047000040F23020C2F200001C
:100C100040F20121018007F01DB9000040F23020B0
:100C2000C2F2000040F20111018007F013B9000088
:100C3000EFF3108072B600BF0020012103F0B4F979
:100C4000C82000F071FC0020002103F0ADF9C8209D
:100C500000F06AFCF0E7000040F23020C2F2000031
:100C60004078704740F23820C2F2000000787047A8
:100C700070B582B004460020019094F82400012849
:100C800002D1022002B070BD012084F82400204669
:100C9000FFF724FE2046FFF785FE28B1002184F8E7
:100CA000241002B070BD00BF0646A06A41F20211D6
:100CB00088430230A06240F28000C2F20000056862
:100CC000022001F08FFDB5FBF0F04000019001988B
:100CD000A8B100BF019801380190019878B101983E
:100CE00001380190019850B10198013801900198A4
:100CF00028B101980138019001980028EAD12068B4
:100D0000816841F00801816000F036FD21688A6841
:100D100012070FD4886840F00400886000F02CFDB2
:100D200021688968490715D401216FF00302304614
:100D300022E000BF054602E088680007EAD500F01F
:100D40001BFD401B21680B28F6D388680007F3D5EC
:100D50000EE000BF054602E080684007E4D500F0E1
:100D60000BFD411B20680B29F6D381684907F3D599
:100D7000012010216FF01202A36A1A401143A162F0
:100D8000002184F8241002B070BD000010B581B0BD
:100D90000022009290F82420012A03D10221084663
:100DA00001B010BD4B680122062B80F8242033D8F7
:100DB000D0F800C003EB83035A1F1F23DCF834E094
:100DC00003FA02F40B682EEA040403FA02F2224347
:100DD000CCF83420092B03EB430249D9DCF80CE0B2
:100DE0001E3A0724896894402EEA0404914023F0B7
:100DF00001022143102ACCF80C1043D142F20841E1
:100E0000C4F20101A1F10802944543D0816A41F086
:100E100020018162012136E0D0F800C00C2B03EBE9
:100E2000830213D8233A1F23DCF830E003FA02F4DC
:100E30000B682EEA040403FA02F22243CCF83020B5
:100E4000092B03EB4302C9D812E000BF413A1F232C
:100E5000DCF82CE003FA02F40B682EEA040403FA2F
:100E600002F22243CCF82C20092B03EB4302B5D825
:100E7000DCF81030072489689440A343914019435B
:100E8000CCF810100021002280F82420084601B080
:100E900010BD00BF0A681202F4D40A68102B42F495
:100EA00000020A60EED140F28001C2F2000109683E
:100EB0004DF68362C4F21B32A1FB0212910C01EBCE
:100EC00081014900009100990029DBD00099013986
:100ED000009100990029D5D000990139009100991D
:100EE0000029CFD000990139009100990029C9D07B
:100EF000009901390091009900294FF00001E5D1D6
:100F0000C1E7000070470000704700007047000014
:100F1000002804BF01207047B0B50446806A28B19C
:100F200021688868C0070CD115E000BF0020E0628E
:100F300084F82400204600F097F821688868C007EC
:100F400009D0886820F00100886000F015FC216855
:100F50008A68D20726D1A06AC0063AD4A06A41F2B4
:100F6000021290430230A062E069D4E9013240EA03
:100F7000030C531EB3FA83F35D091346B2F5807F69
:100F800018BF2B02207D257B01284CEA45002CD17F
:100F900035B3A56A45F02005A562E56A45F001056F
:100FA000E56222E0054602E08868C007D3D000F081
:100FB000E3FB401B21680328F6D38868C007F3D001
:100FC000A06A40F01000A062E06A40F00100E06218
:100FD000A06AA06A40F01000A0620120B0BD00BF6E
:100FE000A56903EB4533A3F5C0534D68B2F5807F87
:100FF00025F4694543EA05034B608B684FF2FD75A4
:10100000CFF6E17503EA050343EA00038B6001D0E4
:10101000012A07D122690023CFF6F07303EB0252B5
:1010200001E000BF0022CB6A23F470031A43CA62B6
:10103000896840F6FE62CFF61F721140814207D1E7
:101040000020E062A16A012262F30101A162B0BD49
:10105000A06A40F0100020F00200A062E06A40F0B8
:101060000100E0620120B0BD2DE9F04186B040F6FC
:1010700000050446C4F20105006805F5E0510027AB
:1010800088420597CDE90377029703D006B0BDE803
:10109000F08100BF41F21800C4F2020001680DF1B6
:1010A000080841F4007101600168032601F4007131
:1010B00001910199016841F004010160016801F0AA
:1010C000040101910199016841F008010160006883
:1010D000414600F00800019001980F200290284638
:1010E000039600F035FA0220CDE9020605F580608E
:1010F000414600F02DFA42F210050820C2F2000528
:10110000C4F202004FF48072C5E9000705F1100037
:1011100080214FF4806320264FF4805C80E84C10DF
:101120002846C5E9027100F06DF9002818BFFFF7E5
:101130007FFD25626C6206B0BDE8F081F0B581B03C
:10114000036842F60006C4F20106B34205D042F23B
:101150000046C4F20106B3420AD142F20443C4F28B
:1011600001031B6813F4702F02D0012001B0F0BD01
:1011700090F82430012B03D1022001B0F0BD00BF54
:101180000D460121174680F824100646FFF70AFC99
:1011900030B1002086F82400012001B0F0BD00BF6E
:1011A00042F204403168B36AC4F20100324640F6AC
:1011B0000176B34300F57F7603F58073B142936205
:1011C00044D0906A20F4801090624868400504D5AD
:1011D000906A012363F30D309062936A0020DB0470
:1011E0004FF0000344BFD36A23F00603D36282F8B2
:1011F0002400106A40F6311340F69D16C0F6000335
:10120000C0F6000640F68514C0F60004C0E90A36B0
:101210006FF0020304630B608B68144643F4807321
:101220008B604C312A463B4600F02EF920688168DD
:1012300001F460228168B2F5602F0CBF41F4A00177
:1012400041F480118160002001B0F0BD036813F407
:10125000702FB6D0936A43F4801393620068400500
:10126000B6D4BAE710B5D0E90FCE0168DCF800308B
:101270000A6823FA0EF35C072AD512F0040427D07B
:101280000A68920603D40A6822F004020A602F2238
:10129000C4F20202914240F20402C4F202025BDD97
:1012A0003023C4F20203994272D04423C4F20203F1
:1012B000994273D05823C4F20203994240F07A80D5
:1012C0004FF480231360C16A002940F098806FE0DA
:1012D0009C0727D512F0020424D00A68920606D48F
:1012E0000A6822F00A020A60012280F821202F22D7
:1012F000C4F20202914240F20402C4F202023BDD57
:101300003023C4F20203994260D04423C4F20203A2
:1013100099425FD05823C4F20203994260D14FF43E
:10132000003365E01B0743D512F0080208BF10BD6B
:101330000A6822F00E020A60012101FA0EF2CCF8CE
:101340000420816380F82110016B0022002980F8BD
:10135000202054D12CE000BF0823C4F2020399429C
:1013600022D01C23C4F20203994223D140231360EC
:10137000C16A002943D11BE00823C4F20203994249
:101380002CD01C23C4F20203994229D120232FE040
:101390004FF480631360C16A89BB09E04FF4804356
:1013A0001360C16A59BB03E004231360C16A31BBF7
:1013B00010BD00BF02F168044FF08063A14208BF76
:1013C0004FF480031360C16AC9B9F1E74FF40073A9
:1013D0000EE000BF4FF400530AE000BF022307E015
:1013E00002F168044FF00073A14208BF4FF40013EC
:1013F0001360816A0022002980F82020D8D0BDE83F
:1014000010400847014600284FF0010008BF704710
:101410002DE9F043D1F800C04FF6F873CBF6FD7319
:101420004CF6CD426344CCF6CC42A3FB02236FF0D2
:10143000030202EA93020023C4F2020301F10C0842
:10144000C1E90F320222D1E9019E98E8F00181F84A
:101450002120DCF8002043F6F0739A4342EA0902A7
:1014600042EA0E0222432A4332433A4342EA080246
:10147000CCF8002000228A6381F8210081F8202026
:101480000020BDE8F043704790F820C0BCF1010F88
:1014900004BF02207047F0B54FF0010E80F820E045
:1014A00090F821C0BCF1010F26D14FF0020C80F85A
:1014B00021C04FF0000CC0F838C0D0E900C4C56AA4
:1014C000C66BDCF80070102C27F00107CCF8007018
:1014D000006C0EFA00F070600846CCF8043004BFCF
:1014E00010460A46CCF80800CCF80C20DCF80000C6
:1014F00045B140F00E000DE0002180F820100220E0
:10150000F0BD00BF20F00400CCF80000DCF80000C3
:1015100040F00A00CCF80000DCF8000040F00100C8
:10152000CCF800000020F0BDB0B5044600F024F96E
:10153000054640F20400C2F200000078611C18BFAA
:10154000044400BF00F018F9401BA042FAD3B0BD1C
:101550002DE9F04F82B00E68002E00F0FD8041F2C0
:101560000042C4F20102042340F2004E904208BF40
:1015700003234FF6FF7CC4F2010E009300240123E5
:10158000C1F2100C4FF0000A4FF000094BE000BF11
:1015900041F20002C4F20102009F904208BF0227FC
:1015A00004F00C030F229A402BEA020207FA03F31D
:1015B0004FEA9A051A4346F825204E6840F20C453A
:1015C000F202DEF8082054BF22EA080242EA0802CA
:1015D000C4F20105CEF808202A68B30254BF22EAFB
:1015E000080242EA08022A60B303DEF8042054BF6E
:1015F00022EA080242EA0802F303CEF80420DEF8E9
:1016000000204FF0010354BF22EA080242EA080218
:10161000CEF800200E680AF1010A36FA0AF204F147
:10162000040400F0998003FA0AFB16EA0B08F1D0D3
:101630004E68664512DC122E56D8DFE806F0350BF0
:101640004D4955555555555555555555555555456E
:10165000510000BFD1F80C9046E000BF4FF6FF727A
:10166000C1F2210296420FDC0022C1F21102964221
:101670001AD00022C1F21202964215D00022C1F205
:101680002102964210D02FE00022C1F2220296429F
:101690000AD00022C1F23102964205D00022C1F2E6
:1016A0003202964220D100BF8A684AB1012A14BF93
:1016B000C0F814B0C0F810B04FF0080914E000BF33
:1016C0004FF0040910E000BFCA6802F104090BE002
:1016D0004FF0000908E000BFCA6802F1080903E002
:1016E000CA6802F10C0900BF02462646B8F5807FA1
:1016F00024BF0432203E17680F25B54027EA0505B0
:1017000009FA06F635431560CA79D2067FF582AF2D
:1017100041F21803C4F202031A68AEF57E7642F075
:1017200001021A601A6802F001020192019A2AF07D
:10173000030256F802B040F60002C4F201029042E1
:1017400008D040F60042C4F2010290427FF420AF7C
:10175000012725E7002723E702B0BDE8F08F00004E
:101760008068084018BF012070470000002A08BFA9
:10177000090401617047000042F21840C2F2000003
:101780000068704740F2040042F21841C2F20000C3
:10179000C2F2000100780A68104408607047000037
:1017A00080B542F20000C4F20200016841F010016D
:1017B0000160032000F08CF80F2000F005F800F025
:1017C00027F8002080BD000070B540F20406C2F288
:1017D000000640F280013278C2F200014FF47A73C1
:1017E0000968B3FBF2F20446B1FBF2F1084601F0DE
:1017F0008FFC0F2C4FF0010508D838B94FF0FF309F
:1018000021460022002500F037F87460284670BD9C
:1018100082B041F21800C4F202000168022241F0D5
:1018200001010160016801F0010101910199416824
:1018300041F080514160406800F080500090009875
:101840000420C4F20100016862F31A61016002B071
:1018500070470000002848BF704700F01F010122B8
:1018600002FA01F11C2202EAD0004EF20012CEF27E
:10187000000281507047000010B54EF60C5CCEF2AD
:10188000000CDCF80030C3F3022E8EF00704042CA9
:1018900028BF0424BEF103034FF0FF3E0EFA04F408
:1018A00038BF0023A14399400EFA03F39A43114332
:1018B00000F00F0200F160430901043A03F56443AC
:1018C0006244002848BF02F10C03197010BD0000EB
:1018D0004EF60C51CEF200010A684FF6FF031A4093
:1018E00060F30A2242F0806040F0FD7008607047AB
:1018F00080B501F0070C0CEB8C0C00EBCC0C0CF160
:10190000100C01EB810E090600EBCE0058BF00F56C
:10191000A87C5AB1ACF808301B0C01210A202CF825
:10192000003000208CF80C1080BD00BF0021062084
:101930002CF8003000208CF80C1080BD704700009F
:1019400001EB8102D0F8D43200EBC200426A1846A3
:1019500004F088BE01EB8102D0F8D43200EBC20063
:10196000D0F86421184604F0DFBE000010B501F085
:10197000070E0A464FFA81FC0EEB8E0100EBC10305
:1019800003F5A871BCF1000F48BF03F1100190F8F6
:101990009032D209012B4A7081F800E004BF022086
:1019A00010BD0268012380F890320446104605F00D
:1019B000B1FB002084F8900210BD0000027901F014
:1019C0000F03934284BF0120704710B501F0070355
:1019D00003EB830200EBC2024FFA81FC8E4602F554
:1019E000A871BCF1000F48BF02F110014FEADE12EE
:1019F0004A7090F890224FF0000C012A81F802C042
:101A00000B7004BF022010BD0268012380F89032E1
:101A10000446104605F00EFC002084F8900210BD2C
:101A2000B0B501F007048C464FFA81FE04EB840147
:101A300000EBC10505F5A871BEF1000F48BF05F127
:101A400010014FEADC154D700C700A61022BCB704F
:101A500004BF00220A7190F89022012A04BF0220DC
:101A6000B0BD0268012380F890320446104605F0AC
:101A700011FA002084F89002B0BD000010B501F00A
:101A8000070C0CEB8C0100EBC10E00680EF5A87181
:101A90000024CEF86421CEF86831CEF86C418EF87F
:101AA00051418EF850C105F01DFC002010BD000012
:101AB000B0B5027901F0070494424FF001022BD82F
:101AC00001EB810300EBC3034FFA81FC03F5A8731C
:101AD00004EB8405C90900EBC505BCF1000F48BF44
:101AE00005F11003597090F890129A7001291C703A
:101AF00004BF0220B0BD0168054680F89022084668
:101B0000194605F0D5FB24B9286805F5267105F0BE
:101B10008FFB002285F890221046B0BD80B501F001
:101B2000070C0CEB8C0100EBC10101F810CF006831
:101B30004FF0010C01F1140781F824C04FF0000EA2
:101B400087E80C400B6281F801C005F0CBFB002058
:101B500080BD00002DE9F04F83B00446006805F019
:101B6000EDFF01041ED4410500F1E483410400F1BE
:101B7000F383810400F10884C10400F10F8401059E
:101B800000F12684810500F17584C00540F1E083F1
:101B90002068B0F8441021F48071A0F8441003B01C
:101BA000BDE8F08F2068B0F94410B1F1FF3F00F3B9
:101BB000CF8304F5A871019104F1100148F2C0052A
:101BC000029104F5267140F60F78009123E000BFE2
:101BD000B0F8501094F8502100EB410101EB0211D4
:101BE000B1F80C34B4F8562100996FF39F23C4F870
:101BF0006C3105F0A7FF2068018801EA08018031F7
:101C00000180204600F0B8FD2068B0F94410B1F121
:101C1000FF3F00F39D83B0F8442012F00F090DD070
:101C200030F929104FEA490BB1F1FF3F1FFA81FA51
:101C300030DD5FEA0A60E7D548E100BF0188D206DF
:101C400062D401EA080101F500410180B0F85010AA
:101C5000227C00EB410000EB0210B0F80404616A42
:101C60006FF39F20E0620844606220460021FFF786
:101C700067FE607B0028C7D0A06A0028C4D1607BC3
:101C8000216840F08000C0B2A1F84C0000206073D1
:101C9000BAE700BF30F81B1001EA0801803120F8D4
:101CA0001B10019A09EB890102EBC106317B002967
:101CB00000F07E80F178022940F08A80B0F8503040
:101CC0003178B26900EB43035FEA4A4703EB011343
:101CD00000F19680B3F80C7400236FF39F27D21B9A
:101CE00038BF1A46B26140F2A1805FEA4A6200F151
:101CF000AD8030F8212002EA08022A4320F8212092
:101D0000002F40F0A480C3E00A053FF561AF09B29F
:101D1000B1F1FF3F3FF778AF018801EA0801803158
:101D20000180B0F8501094F8502100EB410101EB14
:101D30000211B1F80C346FF39F23C4F86C3193B1E6
:101D4000D4F8641179B1B4F8562105F0FBFED4F84B
:101D50006401D4F86C110844C4F8640120460021E1
:101D6000FFF7F8FD206801880A053FF54DAF01F443
:101D70004051B1F5405F3FF447AFB0F8501000F26A
:101D80000C42535A6FF39F235352D4F860313F2BC8
:101D9000C0F0E881DE068E5A4FEA53174FF0FF3548
:101DA00008BF05EB531748F2C00546EA872362E2F5
:101DB000B0F85010327800EB410101EB0211B1F89C
:101DC0000C746FF39F27002F62D07169F2885AE07C
:101DD000317830F8212002EA08022A4320F8212035
:101DE00030F82120B0F8503000EB0111520401EB23
:101DF000430115D4B1F80C746FF39F273FBB47E044
:101E0000B3F8047400236FF39F27D21B38BF1A4620
:101E1000B2611FD95FEA4A622BD497BB38E000BF9A
:101E2000B1F804746FF39F275FBB31E030F82120D5
:101E300043F60F731A404CF28003A3F500535A4047
:101E400020F821205FEA4A627FF553AF07B371693A
:101E5000728918E030F8212043F60F731A404CF2D3
:101E60008003A3F500535A4020F821205FEA4A621C
:101E7000D3D530F8212002EA08022A4320F8212095
:101E800037B1716932893B4605F05CFE01E000BF65
:101E90000027F169D6E9050239443844F1617061DF
:101EA00012B13069B84209D931782046FFF752FDA6
:101EB0005FEA0A607FF5A8AE08E000BF20683146FF
:101EC00005F010FA5FEA0A607FF59EAE206809EB24
:101ED000890130F81B20029B03EBC10602EA0801CE
:101EE00001F5004120F81B10F178012922D1317B46
:101EF00000294FF00001B16100F02F815FEA4A61D3
:101F000000F180807178012900F01481002940F0EF
:101F10002481B0F850103278084400EB0210B0F879
:101F20000C146FF39F21A0F80C14B0F80C1441F4BA
:101F3000004106E15FEACA511ED4B0F85020317862
:101F400000EB420202EB0112B2F80424B3696FF312
:101F50009F229B1A4FF0000738BF3B46B36140F207
:101F6000FD807169F369114471619918F16131461D
:101F700005F0B8F948E600BFB0F850303178B569DF
:101F80005FEA4A6200EB011754D407F20C4E3EF8A8
:101F9000133000226FF39F23ED1A38BF1546B56149
:101FA0007CD95FEA4A4708D430F821704CF28005AA
:101FB00007EA08072F4320F8217096F8241048F20A
:101FC000C005012940F0A981D6E904C1D6E9075727
:101FD00019441D4467457161F56180F0FB80002F55
:101FE00000F06081BC46326286F82420737848F2A3
:101FF000C005012B40F0F780B0F850302EF803C038
:102000007CE100BF7178012900F09E80002940F03A
:10201000A480B0F850103278084400EB0210B0F8F9
:1020200004146FF39F21A0F80414B0F8041441F4D1
:10203000004190E007F2044939F8133000226FF3B1
:102040009F23ED1A38BF1546B5614DD95FEA4A475F
:1020500008D530F821704CF2800507EA08072F43B5
:1020600020F8217096F8241048F2C005012940F0AC
:102070005481D6E90471D6E9075E19441D44BE4572
:102080007161F56180F0CE804FF0000CBEF1000F61
:1020900086F824C040F0C9809E46C8E0737848F2B4
:1020A000C005012B6AD0002B71D1B0F850303B44F1
:1020B000B3F804746FF39F27A3F80474B3F804749F
:1020C00047F40047A3F80474B0F850003EF800301D
:1020D0006FF39F232EF800303EF8003043F40043A6
:1020E0002EF8003053E000BF737848F2C005012B92
:1020F00054D0002B5BD1B0F8503039F803506FF357
:102100009F2529F8035039F8035045F4004529F874
:102110000350B0F8500048F2C0053844B0F80C2421
:102120006FF39F22A0F80C24B0F80C2442F4004274
:102130003BE000BFB0F850103278084400EB0210CA
:102140000021A0F80C1408E0B0F8501032780844D0
:1021500000EB02100021A0F8041431782046FFF7AC
:10216000EFFB51E5002B00F0858003F00107565A84
:1021700007EB530346EA832382E000BFB0F85030F8
:102180003B44A3F80424B0F850002EF80020204669
:10219000FFF7D6FB5FEA4A4010D5BEE0B0F85030FA
:1021A00029F80320B0F850003844A0F80C24204649
:1021B000FFF7C6FB5FEA4A4040F1AF802068317804
:1021C0004CF2800330F8212002EA08021A4320F87A
:1021D0002120A2E0A7EB0C033362737848F2C0051C
:1021E000012B3FF409AF002B40F08880B0F850304D
:1021F000BCF13F0F3EF803706FF39F272EF803707A
:102200005AD35FEACC654FEA5C173EF803504FF0B3
:10221000FF3208BF02EB5C1745EA872748F2C0058A
:1022200068E000BFAEEB070CBE46C6F820C073786E
:1022300048F2C005012B2FD0002B69D1B0F85030E7
:10224000BEF13F0F39F803706FF39F2729F8037031
:1022500040D35FEACE654FEA5E1739F803504FF07E
:10226000FF3208BF02EB5E1745EA872748F2C00538
:102270004AE000BF535A48F20007CFF6FF773B43CE
:102280008B52018843F60F7211404CF28002A2F586
:10229000805251400180B7E4B0F8503029F803E093
:1022A00036E000BF002786F824709C46737848F219
:1022B000C005012B97D19FE6BCF1000F18D00CF0A0
:1022C00001073EF8035007EB5C0745EA872748F211
:1022D000C00511E0BEF1000F14D00EF0010739F86F
:1022E000035007EB5E0745EA872748F2C0050DE07B
:1022F0003EF8037047F400472EF8037072891FFA06
:102300008CF308E039F8037047F4004729F80370AC
:1023100032891FFA8EF305F079FC2068317840F697
:102320003F7330F821201A40A5F110035A4020F8DD
:10233000212069E42068B0F8441021F48061A0F8FD
:102340004410204600F0EAF994F8900201280DD1DB
:1023500003B0BDE8F08F00BF2068B0F8441021F44E
:102360008041A0F8441003B0BDE8F08F01200025A3
:1023700084F8900265732068002105F03FFC84F822
:10238000905203B0BDE8F08F2068B0F8441021F4FB
:102390000051A0F8441003B0BDE8F08F2068B0F8F9
:1023A000401021F00401A0F84010B0F8401021F0D6
:1023B0000801A0F84010204600F0C2F92068B0F8EB
:1023C000441021F48051A0F8441003B0BDE8F08F10
:1023D0002168B1F800C0B1F804E0B1F808808F8935
:1023E0000E8A8D8A088B8A8BB1F8403043F0010346
:1023F000A1F84030B1F8403023F00103A1F840309B
:10240000B1F844305B050CD4B1F844305B055CBFD7
:10241000B1F844305FEA435303D4B1F844305B056C
:10242000EED5B1F8443023F48063A1F84430A1F82C
:1024300000C0A1F804E0A1F808808F810E828D828F
:1024400008838A83B1F8400040F00800A1F84000FA
:10245000B1F8440020F40060A1F84400B1F8400055
:1024600040F004022046A1F8402003B0BDE8F04F40
:1024700000F0A4B92168B1F8440020F400722046AD
:10248000A1F8442003B0BDE8F04F00F05DB90000B2
:10249000002804BF01207047F0B581B0044690F8D1
:1024A000910228B9002084F89002204600F014F927
:1024B000032084F8910220680021617104F0AEFECF
:1024C00094E80700237B04F023FE002840F0F2800C
:1024D0002068002105F090FB002840F0EB8094F884
:1024E00004E0BEF1000F00F0DF800EF0030CBEF13F
:1024F000040F4FF0000237D30EF0FC03A4F1A0004C
:1025000003210125CE1E80F8B0608E1E80F8D860B1
:102510004E1E80F8006180F828110E1D013180F8F0
:10252000B15080F8B320C0E93022C0F8C82080F84C
:10253000D95080F8DB20C0E93A22C0F8F02080F8BA
:10254000015180F80321C0E94422C0F8182180F825
:10255000295180F82B21C0E94E22C0F84021A0303B
:1025600099423146CED1F21EBCF1000F2ED004F1BB
:10257000100002EB820100EBC105012300F83120BD
:102580000021BCF1010F6B70E970C5E90411A9616C
:102590001CD0551C05EB850600EBC607BCF1020FED
:1025A0007B7000F83650F970C7E90411B9610DD09D
:1025B000911C01EB810200EBC203012500F83210EF
:1025C00000205D70D870C3E904009861BEF1000F6F
:1025D0006AD0BEF1040F4FF0000235D30EF0FC00BC
:1025E00003212346CF1E83F850718F1E83F8787124
:1025F0004F1E83F8C8110D1D013183F8512183F856
:102600005321C3E95822C3F8682183F8792183F85C
:102610007B21C3E96222C3F8902183F8A12183F8CA
:10262000A07183F8A321C3E96C22C3F8B82183F811
:10263000C92183F8CB21C3E97622C3F8E021A03376
:1026400081422946CED1EA1EBCF1000F2CD004F500
:10265000A87002EB820300EBC3070021BCF1010F5D
:10266000797000F83320F970C7E90411B9611BD003
:10267000531C03EB830700EBC706BCF1020F71701C
:1026800000F83730F170C6E90411B1610CD0911C2B
:1026900001EB810200EBC20300275F7000F83210EB
:1026A000DF70C3E904779F6194E80700237B04F09F
:1026B000A7FD28B1022084F89102012001B0F0BDED
:1026C00000206073012084F89102206804F096FDD8
:1026D000002001B0F0BD0000006845F60041C4F2E2
:1026E0000001884218BF704780B582B041F21C00DB
:1026F000C4F202000168002241F400010160006898
:10270000002100F40000019001981420FFF7B4F8B4
:10271000142002B0BDE88040FFF79CB810B5044615
:102720008079022818BFFEF783FAD4F8D402012179
:1027300004F0EEF8D4F8D402BDE8104004F0A6B8D6
:10274000D0F8D40204F0CCB8D0F8D40204F0D2B857
:1027500090F89022012A04BF0220704710B5012290
:1027600080F89022417302680446104605F046FA4C
:10277000002084F8900210BDD0F8D42200F5267114
:10278000104604F0DBB8000090F89012012904BF55
:102790000220704710B50168012280F8902204469B
:1027A000084605F0BBF920460121FFF7C7F820686D
:1027B00004F022FD002084F8900210BD10B50446FC
:1027C000D0F8D40204F00AF9A07A002808BF10BD9E
:1027D0004EF61050CEF20000016841F00601016093
:1027E00010BD0000012821D002280DD0102808D1EA
:1027F00041F20401C4F202010A6851F8040CC0015C
:1028000034D40020704700BF80B500F0DBF941F2FE
:102810000401C4F2020109680222C1F3813102EB12
:102820004101B0FBF1F0BDE88040704741F2040087
:10283000C4F20200C16940F202320A40B2F5817F5F
:1028400004BF4FF40040704701F44071B1F5407F80
:1028500018D0B1F5007F1CBF00207047006A49F610
:102860004041800701EAE070704700BFC2F3834037
:1028700015A3185CD2030DD440F60012C0F23D023D
:10288000504313E050F8040C4FF22441800301EA56
:10289000E07070470A6810A3C2F340429A5C41F2AC
:1028A0000023C0F27A03B3FBF2F2504309684902F5
:1028B00048BF70474AF6AB214000CAF6AA21A0FBE8
:1028C00001014808704700BF020304050607080914
:1028D0000A0B0C0D0E0F1010010200002DE9F04143
:1028E00082B00446007841F21C06C007C4F202061A
:1028F0004AD030685FEAC00808D4306840F08050A1
:102900003060306800F080500190019847F2000775
:10291000C4F200073868C00512D4386840F48070EB
:102920003860FEF729FF05463868C00508D4FEF771
:1029300023FF401B6428F7D9032002B0BDE8F081D3
:10294000706810F4407012D0616801F440718842E0
:102950000DD0706840F24042C4F24222012320F4BC
:10296000407113600023C0071360716026D1706846
:10297000616820F440700843B8F1000F706003D420
:10298000306820F0805030602068810707D556F805
:10299000181CA26821F44041114346F8181CC006D7
:1029A00007D556F8180CE16820F48000084346F873
:1029B000180C002002B0BDE8F08100BFFEF7DCFE7D
:1029C000054641F2883700BF70688007CFD4FEF714
:1029D000D3FE401BB8424FF00300F5D9EAE70000F0
:1029E000002804BF012070472DE9F04381B042F276
:1029F0000008C4F202080446D8F800000D4600F0B2
:102A0000070088420CD2D8F8000020F007002843C5
:102A1000C8F80000D8F8000000F00700A8426CD108
:102A2000206841F204098107C4F2020917D5410761
:102A300005D5D9F8001041F4E061C9F8001001078C
:102A400005D5D9F8001041F46051C9F80010D9F843
:102A50000010A26821F0F0011143C9F80010C0076E
:102A600042D1D8F8000000F00700A8420CD9D8F8ED
:102A7000000020F007002843C8F80000D8F8000044
:102A800000F00700A84238D12068410707D5D9F8DF
:102A90000010E26821F4E0611143C9F8001000075A
:102AA00008D5D9F80000216920F4605040EAC1003F
:102AB000C9F80000D9F8002002F00C00082841F203
:102AC0000020C0F27A004DD14AF26A43C2F383413A
:102AD000C0F60003595CD20338D440F60010C0F2AF
:102AE0003D0048433EE000BF606859F8041C0228DE
:102AF00008D0012826D1890306D4012001B0BDE801
:102B0000F08300BF8901F8D5D9F8001021F0030146
:102B10000843C9F80000FEF72FFE064641F2883749
:102B2000D9F80000616800F00C00B0EB810F98D07C
:102B3000FEF722FE801BB842F2D9032001B0BDE8A7
:102B4000F08300BF8907D8D5DEE700BFD9F80020A1
:102B500048F66203C2F34042C0F600039A5C484361
:102B6000B0FBF2F0D9F8001048F64A02C1F30311A5
:102B7000C0F60002515C40F2800220FA01F140F2FE
:102B80000800C2F200000068C2F200021160FEF705
:102B90001BFE002001B0BDE8F083000040F2800081
:102BA00041F20401C2F20000C4F2020100680968A7
:102BB00048F65A02C1F30221C0F60002515CC84037
:102BC0007047000040F2800041F20401C2F20000B0
:102BD000C4F202010068096848F65A02C1F3C22132
:102BE000C0F60002515CC84070470000002804BFD6
:102BF000012070472DE9F04182B00446007841F28F
:102C00000006C007C4F202060CD0706800F00C0089
:102C1000042840F081803068800303D56068002874
:102C200000F04681207880071BD5706810F00C0FEB
:102C300009D0706800F00C00082840F087807068A8
:102C4000C00300F183803068800703D52069012824
:102C500040F02E813068616920F0F80040EAC10040
:102C600030602078000713D4207840072CD4E56921
:102C7000002D00F01881706800F00C00082840F06A
:102C8000A780012D40F00481012002B0BDE8F08151
:102C9000A069002800F084800020C4F242200121B5
:102CA000C0F88014FEF768FD054600BF706A800713
:102CB00000F1B280FEF760FD401B0228F6D9032028
:102CC00002B0BDE8F08100BFF0695FEAC00808D437
:102CD000F06940F08050F061F06900F080500090A1
:102CE000009847F20007C4F200073868C00549D4CD
:102CF000386840F480703860FEF73EFD054600BF3E
:102D00003868C0053ED4FEF737FD401B6428F7D96C
:102D1000032002B0BDE8F081706800F00C000828C4
:102D200003D17068C0033FF576AF61683068002951
:102D300000F00C81B1F5A02F00F00081B1F5803FCB
:102D400040F01A8140F480301CE100BF2069002867
:102D500040F20000C4F2422000F0888001210160AE
:102D6000FEF70AFD054600BF306880073FF572AFE9
:102D7000FEF702FD401B0228F6D9032002B0BDE891
:102D8000F08100BFE168306A002900F09D800529CC
:102D900000F09280012940F0AF8040F00100B1E0E6
:102DA0000020C4F242200021C0F88014FEF7E4FCA9
:102DB000054600BF706A80077FF556AFFEF7DCFC62
:102DC000401B0228F6D9032002B0BDE8F08100BF05
:102DD0000027C4F2422700203866FEF7CDFC022D02
:102DE00005460DD13068800140F1DE80FEF7C4FC5D
:102DF000401B02284FF00300F4D902B0BDE8F08177
:102E0000306880014FD5FEF7B7FC401B02284FF019
:102E10000300F5D9F1E700BF40F28000C2F20000E4
:102E2000006844F6D351C1F26201A0FB0101480AD7
:102E3000019000BF00BF0198411E002801913FF49E
:102E400013AF00BF0198411E002801913FF40CAF61
:102E500000BF0198411E002801913FF405AF00BF5B
:102E60000198411E00280191E4D1FDE60021016096
:102E7000FEF782FC054600BF306880077FF5F1AEA3
:102E8000FEF77AFC401B02284FF00300F4D9B4E7A8
:102E90007068216A00F480328A4209D1616A00F4C4
:102EA0007010884204D1002002B0BDE8F08100BF5C
:102EB000012002B0BDE8F08140F004003062306AC9
:102EC00040F001001EE000BF20F001003062306AD7
:102ED00020F004003062FEF74FFC054641F28837CF
:102EE000306A800720D5FEF747FC401BB8424FF000
:102EF0000300F5D981E700BF20F001003062306A9D
:102F000020F004003062FEF737FC054641F28837B6
:102F1000306A800708D4FEF72FFC401BB842F7D96F
:102F2000032002B0BDE8F081B8F1000F3FF59FAE7D
:102F3000F06920F08050F06199E600BF40F48020F5
:102F40003060306840F480301CE000BF20F48030F6
:102F50003060306820F480203060FEF70DFC0546BC
:102F6000306880037FF55EAEFEF706FC401B6428E8
:102F70004FF00300F4D940E720F48030306030682F
:102F800020F480203060FEF7F7FB054630688003B0
:102F90003FF548AEFEF7F0FB401B6428F6D903204E
:102FA00002B0BDE8F08100BF206AB0F5803F05D1D6
:102FB0007168A26821F40031114371607168626A1E
:102FC00021F4741111430843706001203866FEF744
:102FD000D3FB0446306880013FF565AFFEF7CCFBBC
:102FE000001B02284FF00300F4D906E770B528B1A2
:102FF000416A29B100210161142106E0012070BD60
:103000004168B1F5827F02D01C2100224250002687
:10301000866290F8511029B980F85060054600F09A
:1030200039F82846022180F8511090E82E0002F469
:1030300082720C6803F4044324F040040C601A44C8
:1030400005F4006305691A4405F0020345691A4452
:1030500005F001038569C4691A4405F400731A4434
:1030600004F03803046A1A4404F08003846A1A43A3
:1030700004F400531A430A60042202EA15424A602B
:10308000CA6922F40062CA610121466580F85110C4
:10309000304670BD70B586B040F60004C4F201043D
:1030A000006804F52051002688420596CDE90366A4
:1030B000029601D006B070BD41F21800C4F20200C1
:1030C000016802AD41F480510160016801F4805152
:1030D00001910199016841F00401016000682946ED
:1030E00000F0040001900198A020029002200390BB
:1030F000032005902046FEF72BFA4020CDE902067A
:10310000204629460496FEF723FA06B070BD00005B
:10311000411E0020B0EB116F1CBF012070474EF222
:103120001002CEF2000251604EF62351CEF20001A1
:10313000F0230B700721906011607047704700000A
:103140007047000090F83C20012A4FF0020236D070
:1031500010B580F83D200268D2F804E0D2F808C02B
:103160000C682EF07003234340F2FF74C4F2000495
:10317000A24253600ADCB2F1804F13D040F2004308
:10318000C4F200039A420DD011E000BF42F60043A2
:10319000C4F201039A4205D040F60003C4F20003D2
:1031A0009A4204D149682CF08003194391600121AF
:1031B000002280F83D1080F83C20BDE81040104609
:1031C00070470000002804BF0120704710B590F838
:1031D0003D1031B9002180F83C10044600F070F831
:1031E0002046022180F83D10016840F2FF740B6810
:1031F000C4F2000442F6004CA142C4F2010C15DCFA
:10320000B1F1804F1AD040F20042C4F20002914264
:1032100014D0A14218DCB1F1804F1DD040F2004221
:10322000C4F20002914217D01AE000BF614505D0F8
:1032300040F60002C4F200029142EAD1826823F013
:1032400070031343A142E6DD614505D040F600025C
:10325000C4F20002914203D1026923F44073134384
:10326000846923F08002D0F804E0C36822436145FA
:103270000A60CB62C1F828E002D14269CCF8302064
:1032800001224A610B69DB0703D00B6923F00103BC
:103290000B6180F8462080F83E2080F83F2080F8BF
:1032A000402080F8412080F8422080F8432080F8B8
:1032B000442080F8452080F83D20002010BD00000B
:1032C00080B582B0006840F60001C4F20001884277
:1032D0001ED040F20041C4F20001884225D141F2E3
:1032E0001C00C4F202000168002241F002010160EA
:1032F0000068002100F00200019001981D20FEF7F7
:10330000BBFA1D2002B0BDE88040FEF7A3BA00BFA3
:1033100041F21C00C4F20200016841F004010160A6
:10332000006800F004000090009802B080BD00002A
:1033300090F83D1001291CBF01207047022180F840
:103340003D10006840F2FF71C4F20001884209DCC0
:10335000B0F1804F12D040F20041C4F20001884227
:103360000CD012E042F60041C4F20101884205D0BF
:1033700040F60001C4F20001884206D1816801F0E4
:103380000701062904BF00207047016841F00101D0
:10339000016000207047000090F83D1001291CBF1B
:1033A00001207047022180F83D10006840F2FF7252
:1033B000C168C4F20002904241F00101C16009DC21
:1033C000B0F1804F12D040F20041C4F200018842B7
:1033D0000CD012E042F60041C4F20101884205D04F
:1033E00040F60001C4F20001884206D1816801F074
:1033F0000701062904BF00207047016841F0010160
:10340000016000207047000090F83C20012A4FF036
:1034100002026CD080B580F83D20D0F800C04FF695
:103420007772DCF8083023EA0202CCF808200B6837
:103430004F2B29DC1F2B45DD202B46D0302B44D0D1
:10344000402B40F0AF80D1F804E0C968DCF82030B0
:10345000DCF8202022F00102CCF82020DCF8182033
:1034600022F0F00242EA011123F00A0242EA0E02BF
:10347000CCF81810CCF82020DCF8081041F04701F7
:1034800021F0300128E000BF6F2B33DDB3F5005F82
:1034900074D0B3F5805F21D0702B40F08380D1E9E8
:1034A00001E3C968DCF8082043EA0E0322F47F42F6
:1034B00043EA01211143CCF80810DCF8081041F070
:1034C000770109E00BB1102B6CD1DCF8081021F06A
:1034D0007001194341F00701CCF8081000220121C6
:1034E00080F83D10002180F83C10BDE88040104677
:1034F000704700BF502B21D0602B53D1D1F804E08E
:10350000C968DCF82030DCF8202022F01002CCF86A
:103510002020DCF8182022F4704242EA013123F026
:10352000A00242EA0E12CCF81810CCF82020DCF8E9
:10353000081041F0670121F01001CDE7D1F804E057
:10354000C968DCF82030DCF8202022F00102CCF839
:103550002020DCF8182022F0F00242EA011123F0CA
:103560000A0242EA0E02CCF81810CCF82020DCF84F
:10357000081041F0570121F02001ADE7D1E901E346
:10358000C968DCF8082043EA0E0322F47F4243EACC
:1035900001211143CCF80810DCF8081041F48041F7
:1035A0009AE700BF01229AE77047000070B5044611
:1035B0000068C5680669B10716D515F0020113D079
:1035C0006FF002010161012121778069800703D03A
:1035D0002046FFF7E9FF05E0204600F08FF820467F
:1035E00000F010FA00202077700719D515F00400BC
:1035F00016D020686FF004010161022121778069F3
:1036000010F4407F04D02046FFF7CEFF06E000BF55
:10361000204600F073F8204600F0F4F900202077EF
:10362000300717D515F0080014D020686FF0080196
:10363000016104212177C069800703D02046FFF78C
:10364000B3FF05E0204600F059F8204600F0DAF913
:1036500000202077F00619D515F0100016D020684C
:103660006FF01001016108212177C06910F4407FDB
:1036700004D02046FFF798FF06E000BF204600F088
:103680003DF8204600F0BEF900202077F00718BF73
:1036900015F0010002D1300609D412E020686FF065
:1036A00001010161204600F01DFA300609D515F030
:1036B000800006D020686FF0800101612046FFF78E
:1036C0003DFD700609D515F0400006D020686FF06A
:1036D00040010161204600F04FFAB00658BF70BDAE
:1036E00015F0200008D021686FF0200220460A6102
:1036F000BDE87040FFF724BD70BD000070470000BA
:1037000090F83C30012B04BF022070474FEAB20210
:10371000032A00F2F1802DE9F043DFE802F003A56F
:103720003B7500BF036842F600461D6A1A6AC4F280
:10373000010622F001021A621A465C6852F818CF9C
:10374000B3428E68D1F800E025F0020545EA06058F
:103750000CD1CE68D1E9057824F4407425F00C052D
:1037600026F004063C43354344EA08042CF0730772
:1037700047EA0E075C609F614F6809695F631D62DD
:103780009F6947F008079F619F6927F004079F61C1
:10379000A6E000BF036842F600461D6A1A6AC4F23A
:1037A000010622F480721A621A46D3F804C052F855
:1037B0001CEFB3428E680C6825F4007545EA0625B7
:1037C0000FD1CE68D1E90598360240F2FF4725F4C3
:1037D0004065BE4335432CF4405748EA090647EAA2
:1037E000061C2EF073072743C3F804C0DF614F683F
:1037F0000969DF631D62DF6947F00807DF61DF6980
:1038000027F00407DF616BE0036842F60047D3F856
:1038100020C01A6AC4F2010722F480521A621A46C2
:103820005C6852F81C5FD1F800E08E68BB4204D19E
:103830004F6924F4804444EA87142CF4005747EA83
:10384000063725F4E64646EA0E265C60DE614E68E1
:1038500009691E641F62DF6947F40067DF61DF6981
:1038600027F48067DF613AE0036842F600461D6A8C
:103870001A6AC4F2010622F010021A621A46D3F83C
:1038800004C052F8184FB3428E68D1F800E025F01A
:10389000200545EA06150FD1CE68D1E905986FF0ED
:1038A000400725F0C00507EA061635432CF44067AB
:1038B00048EA090647EA860C24F4E64444EA0E275F
:1038C000C3F804C09F614F6809699F631D629F69C7
:1038D00047F400679F619F6927F480679F61090231
:1038E0001368194311600021BDE8F043002280F8FD
:1038F0003C200846704700BF0121002280F83C2090
:1039000008467047002804BF0120704710B590F8A2
:103910003D1031B9002180F83C10044600F070F8E9
:103920002046022180F83D10016840F2FF740B68C8
:10393000C4F2000442F6004CA142C4F2010C15DCB2
:10394000B1F1804F1AD040F20042C4F2000291421D
:1039500014D0A14218DCB1F1804F1DD040F20042DA
:10396000C4F20002914217D01AE000BF614505D0B1
:1039700040F60002C4F200029142EAD1826823F0CC
:1039800070031343A142E6DD614505D040F6000215
:10399000C4F20002914203D1026923F4407313433D
:1039A000846923F08002D0F804E0C36822436145B3
:1039B0000A60CB62C1F828E002D14269CCF830201D
:1039C00001224A610B69DB0703D00B6923F0010375
:1039D0000B6180F8462080F83E2080F83F2080F878
:1039E000402080F8412080F8422080F8432080F871
:1039F000442080F8452080F83D20002010BD0000C4
:103A00007047000070470000C1B1042908D00829A0
:103A100014BF41224022825C012A05D016E000BF7B
:103A20003F22825C012A11D10222082910D00429E8
:103A300014BF80F8412080F83F200BE090F83E2032
:103A4000012A03D1022280F83E2003E001207047C2
:103A500080F84020006801F01F010122036A8A40BB
:103A600023EA02010162036A42F64441C4F2010101
:103A70001A43A1F14403984202620FD040F2FF7151
:103A8000C4F20001884213DCB0F1804F1CD040F238
:103A90000041C4F20001884216D01CE00A6842F4DA
:103AA00000420A6040F2FF71C4F200018842EBDD7F
:103AB00042F60041C4F20101884205D040F60001FF
:103AC000C4F20001884206D1816801F0070106298D
:103AD00004BF00207047016841F00101016000202F
:103AE0007047000010B540F2DC14C2F20004211D42
:103AF000884218BF10BD60880130608001202070AE
:103B000041F64450C2F2000001F0DCFF60884CF640
:103B1000CD41CCF6CC4141434CF6CC424FEAB10109
:103B2000C0F6CC42914209D800F046F940F27E013D
:103B3000C2F20001087000F0DFF8608847F6D50196
:103B4000C2F2E961484348F637114FEAF000C0F28B
:103B50004101884200D910BD61780022B1FA81F09C
:103B60004009002918BF0121607001206280BDE872
:103B7000104000F019BA000070470000002804BF90
:103B80000120704710B5044690F8410028B9002084
:103B900084F84000204600F063F8242084F84100B7
:103BA0002068D4E90212C36823F40053C360036998
:103BB00023F440531A430261D4E904231143C26839
:103BC000194341F20C639A431143C1604169A269F0
:103BD00021F44071114343F60002C4F20102904205
:103BE000416103D0FEF7DAFF02E000BFFEF7EAFF13
:103BF000D4E90023192148439900B0FBF1F048F2C1
:103C00001F5CC5F2EB1CA0FB0C314FF69C734909FD
:103C1000C0F6FF7301FB0300322303EB0010A0FB8F
:103C20000C03F02000EA531000EB0110C3F3431122
:103C3000084490601069202120F490401061506980
:103C400020F02A005061D06840F40050D06000207D
:103C5000606484F8411084F84210606310BD000075
:103C600070B586B040F60004C4F20104006804F5A3
:103C70004051002688420596CDE90366029601D0A0
:103C800006B070BD41F21800C4F20200016802AD36
:103C900041F480410160016801F480410191019982
:103CA000016841F0040101600068294600F0040049
:103CB000019001984FF400700290022003900320BD
:103CC00005902046FDF744FC4FF48060CDE90206E4
:103CD000204629460496FDF73BFC06B070BD000067
:103CE000FEE7000040F23820C2F2000000780738FA
:103CF000B0FA80F04009704770B50446FFF7F2FF54
:103D000041F64455C2F2000510B1FCF7A5FF58B1C9
:103D1000052C2DD80120DFE804F02C031D211725E8
:103D20000220287070BD00BFA878142824D840F263
:103D30007C06C2F200063088013801043080E7D1E9
:103D400002F066F925E000BF02F01CF9102028708F
:103D500070BD00BF0420287070BD00BF082028700F
:103D600070BD00BF02F040F92020287070BD00BF78
:103D70000020287070BD00BFF02811D340F27C06EF
:103D8000C2F200063088013801043080C0D102F050
:103D9000F1F80120FCF71CFF05203080B8E700BFD8
:103DA00040F27C00C2F20000052101800020FCF7F7
:103DB0000FFFADE77047000070B540F60045C4F254
:103DC000010505F580604FF40051FDF7C9FC40F294
:103DD0002826C2F200063178022911D0012905D027
:103DE000B1B94FF00604A0B901210EE0B0FA80F19C
:103DF00049094900002818BF0620044605E000BF15
:103E000001284FF0060404D10021317001E000BF09
:103E1000062428464FF48051FDF7A2FC717879B151
:103E2000012905D0022908BF01280CD1002109E091
:103E3000B0FA80F149094900002808BF012401E0D7
:103E400008B90121717028464FF40041FDF788FC44
:103E5000B17879B1012905D0022908BF01280CD118
:103E6000002109E0B0FA80F149094900002808BFA3
:103E7000052401E008B90121B170A5F580604FF477
:103E80008071FDF76DFCF17881B1012906D002291E
:103E900008BF01280DD100210AE000BFB0FA80F16F
:103EA00049094900002808BF042401E008B901219C
:103EB000F17028464021FDF753FC317981B1012989
:103EC00006D0022908BF01280DD100210AE000BF59
:103ED000B0FA80F149094900002808BF022401E036
:103EE00008B90121317128462021FDF739FC71798B
:103EF00091B1012906D0022908BF012812D020461D
:103F000070BD00BFB0FA80F149094900002808BF20
:103F100003247171204670BD0028F0D10121717118
:103F2000204670BD00217171204670BD0020002127
:103F300000F03AB80020012100F036B870470000C8
:103F400010B540F60044C4F201042046802100224E
:103F5000FDF70CFC3220FDF7E7FA20464FF48071A4
:103F60000022FDF703FC3220FDF7DEFA20464FF475
:103F700000710022FDF7FAFB3220FDF7D5FA20464A
:103F80004FF400710122FDF7F1FB3220FDF7CCFA6E
:103F900020464FF480710122FDF7E8FB3220BDE896
:103FA0001040FDF7C1BA0000022888BF704748F6EC
:103FB0004402C0F6000232F81030B1FA81F0420932
:103FC00040F60040C4F201001946FDF7CFBB0000E7
:103FD00070B584B040F2A014C2F2000442F2004175
:103FE000C4F20101204640F80C1F4FF480710025F7
:103FF0004FF42022C0E90151052105730575C26106
:104000000161FCF785FF002818BFFCF711FE019540
:10401000062004F10C050126039001A9284602960A
:10402000FCF7B4FE002818BFFCF702FE019602263A
:1040300001A928460296FCF7A9FE002818BFFCF744
:10404000F7FD0196032601A928460296FCF79EFE7D
:10405000002818BFFCF7ECFD0420029001A92846B7
:104060000196FCF793FE002818BFFCF7E1FD09203C
:104070000190052002900720039001A92846FCF733
:1040800085FE002818BFFCF7D3FD2846FCF7F0FD9D
:10409000002818BFFCF7CCFD284621460522FDF775
:1040A0004DF804B070BD000080B582B041F214003C
:1040B000C4F202000168002241F0010101600068C1
:1040C000002100F00100019001980B20FDF7D4FBC6
:1040D0000B2002B0BDE88040FDF7BCBB2DE9F043EA
:1040E00085B0002741F21800CDE90377CDE90177CB
:1040F000C4F20200016840F6004541F01001016081
:104100000168C4F2010501F01001009100990168F5
:10411000A5F5806441F0200101600168012201F0F1
:1041200020010091009901684FF0100941F004014D
:10413000016001684FF0010801F00401009100994D
:10414000016841F0080101600068102100F00800DA
:10415000009000982046FDF709FB28464FF4CF4118
:104160000122FDF703FB284608210022FDF7FEFA95
:104170004FF4005001AECDE9010705F580603146EE
:104180000397FDF7E5F9CDE901984FF002092046C4
:1041900031460397CDF81090FDF7DAF928463146FD
:1041A000CDE90187CDF80C80FDF7D2F94FF4F1602D
:1041B000CDE9010828463146CDE90379FDF7C8F974
:1041C00049F26000CDE90107284631460397FDF723
:1041D000BFF94FF4C04001901120CDE90207032040
:1041E000049028463146FDF7B3F94FF48070CDE9CD
:1041F0000107204631460397FDF7AAF905B0BDE84F
:10420000F083000080B542F22C3043F20001C2F28C
:104210000000C4F201014FF48272002380E80E0016
:1042200000F114014FF4007C4FF0100E81E80850AB
:104230000A21C0E90333C0E90833C0E90A31FEF7B7
:10424000D5FE002808BF80BDBDE88040FCF7F0BC6B
:1042500010B586B040F2DC14C2F2000440F2004215
:10426000C4F200022046002140F8042F47224FF4F8
:104270007A730591CDE90311CDE90011C0E901215F
:10428000C0E9033180218161FEF79CFF002818BF3F
:10429000FCF7CEFC4FF480500434029002A9204673
:1042A000FFF7B2F8002818BFFCF7C2FC69462046A9
:1042B000FEF748FF002818BFFCF7BAFC2046FFF7BE
:1042C0006BF8002818BFFCF7B3FC06B010BD000067
:1042D00080B58EB042F284300021C2F2000040F678
:1042E000000244F61F6C0D91CDE90B110991CDE947
:1042F0000711CDE90511CDE90311CDE90111C4F292
:1043000000024723C0E9021C01618021C0E90023AB
:104310008161FEF757FF002818BFFCF789FC4FF4B6
:1043200080500A9042F28430C2F200000AA9FFF7DE
:104330006BF8002818BFFCF77BFC42F28430C2F215
:104340000000FFF7DFFA002818BFFCF771FC10200F
:1043500008908020099042F28430C2F2000008A93F
:10436000FEF7F0FE002818BFFCF762FC6020019009
:1043700041F28830029000200390059042F2843090
:10438000C2F2000001A90C22FFF7BAF9002818BFF9
:10439000FCF74EFC42F28430C2F20000FEF7C8FF88
:1043A000002818BFFCF744FC42F28430C2F200003F
:1043B0000C21FFF729FB002818BFFCF739FC0EB0D1
:1043C00080BD000080B542F2CC3043F60001C2F25D
:1043D0000000C4F2010100234FF00C0C4FF4E13255
:1043E00080E80E00C0E90333C0E905C3C361FFF7ED
:1043F000C5FB002808BF80BDBDE88040FCF718BCA5
:1044000080B541F64C5040F26001C2F20000C2F2A9
:104410000001002202F0EAF8002818BFFCF708FCAF
:1044200041F64C5040F28401C2F20000C2F2000199
:1044300002F0FCFA002818BFFCF7FAFB41F64C50DA
:1044400040F25811C2F20000C2F2000101F0F2FE87
:10445000002818BFFCF7ECFB41F64C50C2F20000FC
:1044600002F0FAFA002808BF80BDBDE88040FCF7E2
:10447000DFBB0000FEE700002DE9F04F83B000F045
:10448000E3F8804600F0FCF8814600F0DDF80646CF
:1044900000F0F6F8044600F0D7F843F635734BA267
:1044A000C0F6000300214FF0000B03F00DFD07469E
:1044B00000F0CAF843F62D7346A2C0F600030021AF
:1044C00003F002FD024620463946002303F0C4FCF7
:1044D000034642A23046012103F0F6FC824600F07A
:1044E000B3F8074600F0CCF8044600F0ADF840F60B
:1044F0001D433DA2C0F60003002103F0E5FC054684
:1045000000F0A2F840F609433AA2C0F600030021E9
:1045100003F0DAFC024620462946002303F09CFC07
:10452000034637A23846012103F0CEFC074600F0CF
:104530008BF8044600F0A4F8054600F085F833A295
:104540000021002303F0C0FC064600F07DF831A2F4
:104550000021002303F0B8FC024628463146002320
:1045600003F07AFC03462DA22046012103F0ACFCA7
:10457000044600F069F82CA20021002303F0A4FCFB
:10458000054600F061F82BA20021002303F09CFCFB
:10459000CDE90050484651463A462346CDF808B08A
:1045A00003F05AFC034626A24046012103F08CFC8E
:1045B00042F21441C2F200010860806840F23421E6
:1045C000C2F20001086003B0BDE8F08F4C45445FC3
:1045D0004F4E00004C45445F4F4646004C4544203A
:1045E000202020202020000052656D6F74655F44FC
:1045F0006174610052656D6F74655F55490000001C
:1046000052656D6F74655F41444320006661737449
:1046100000000000736C6F77000000005370656548
:104620006420202020200000526F6F742020202062
:104630002020000052657365742020202020000097
:104640004C454400FEE7000040F23C20C2F200006E
:10465000B0F9001095290BDC4A1C028001EB4100E7
:1046600040F24021C2F2000101EBC000704700BFE0
:1046700040F25D01C2F200010020087070470000A6
:1046800041F25000C2F20000B0F9001063290BDCC7
:104690004A1C028001EB810041F25401C2F2000188
:1046A00001EB8000704700BF40F25D00C2F20000E5
:1046B000012101700020704780B541F62600C2F24A
:1046C00000004FF48061FBF734FD80BD2DE9F04F11
:1046D00089B000938E46114603467F2819DC01EB12
:1046E0000E0210B23F2814DC1A4312B2002A10D472
:1046F0006FF0700700F0070207EA001041F6260786
:10470000C2F2000738440126C75C06FA02F23A43B7
:10471000C254AEEB010210B21A437F2B0FFA82FC97
:10472000D8BF3F2813DCBCF1000F10D46FF0700627
:1047300041F6260406EA0016C2F20004264400F000
:1047400007020127F55C07FA02F22A43F254BEF190
:104750003F0F19DCCA1817B27F2F15DC42EA0E0290
:1047600012B2002A10D46FF0700541F6260405EA53
:104770000E15C2F2000425440EF007020126EC5D7E
:1047800006FA02F22243EA55BEF13F0F19DC5A1A2B
:1047900017B27F2F15DC42EA0E0212B2002A10D4A3
:1047A0006FF0700541F6260405EA0E15C2F200040A
:1047B00025440EF007020126EC5D06FA02F22243C0
:1047C000EA550A4600990029114645D04A4217B2D7
:1047D0008F4241DA7F2B3FDCCA1B12F0030635D033
:1047E0003F2813DCBCF1000F10D46FF0700500F00F
:1047F000070205EA001041F62605C2F2000528442A
:104800000124C55C04FA02F22A43C254012E07F1C6
:1048100001001CD000EB0E0210B23F2814DC1A433A
:1048200012B2002A10D46FF0700600F0070206EAF8
:10483000001041F62606C2F2000630440125C65C8F
:1048400005FA02F23243C254B81C00E038467A1A24
:1048500012F1040F40F28A830129C0F28383C1F16F
:1048600001004FF0FF324FF0010800276FF0700C8D
:104870004FF0010B0592CDF820E0049310E000BF4B
:10488000DDE90210049B00EB41000599013001397C
:104890000591DDE906710BF1010B8F4280F2628315
:1048A0000137039000B200283846A1F101025CBF35
:1048B0001146801A01EB0E040290F8180FFA84FEDC
:1048C000BEF13F0F0FFA80FAD8BFBAF17F0F13DCA9
:1048D000204300B200280FD441F626040CEA0E1241
:1048E000C2F2000422440EF0070012F80A4008FA4F
:1048F00000F0204302F80A00089809B23D18CC18CD
:1049000028B23F2826B2D8BF7F2E12DC44EA050227
:1049100012B2002A0DD441F626050CEA0014C2F2A8
:1049200000052C4400F00702A55D08FA02F22A43B4
:10493000A255089ADC1B521A13B23F2B0FFA84F9C6
:1049400006970192D8BFB9F17F0F14DC019A224378
:1049500012B2002A0FD441F626050CEA0314C2F263
:1049600000052C4403F0070214F8095008FA02F27B
:104970002A4304F80920049A0791571A0899069ABD
:104980003CB28A1A15B23F2DD8BF7F2C11DC3A43B6
:1049900012B2002A0DD441F626010CEA0517C2F224
:1049A00000010F4405F00702395D08FA02F21143D5
:1049B00039553F2BD8BFBAF17F0F12DC53EA0A01F9
:1049C0000FD441F626070CEA0312C2F200073A445C
:1049D00003F0070112F80A7008FA01F1394302F8EE
:1049E0000A103F2DD8BF7F2E10DC56EA05010DD4EA
:1049F00005F007010CEA051241F62605C2F2000592
:104A00002A44955D08FA01F129439155BEF13F0F03
:104A1000D8BFB9F17F0F12DC5EEA09010FD441F66D
:104A200026070CEA0E12C2F200073A440EF0070104
:104A300012F8097008FA01F1394302F809103F2809
:104A4000D8BF7F2C10DC54EA00010DD441F62602B9
:104A500000F007010CEA0010C2F200021044025DEF
:104A600008FA01F1114301550098DDF820E0002813
:104A70003FF406AF079948420FFA80FE714540F3B4
:104A80009F81BAF17F0F49DDB9F17F0F00F3988163
:104A9000A1EB0E0010F0030000F08A813F2B15DC23
:104AA000019941EA090109B200290FD403F0070175
:104AB0000CEA031241F62603C2F200031A4412F86C
:104AC000093008FA01F1194302F8091001280EF122
:104AD00001001BD00899421810B23F2814DC42EAAA
:104AE000090109B200290FD441F6260200F007019E
:104AF0000CEA0010C2F20002104410F8092008FA73
:104B000001F1114300F809100EF102000799AEEB14
:104B1000010111F1040F40F2BF8151E1A1EB0E0040
:104B200010F003006ED03F2B15DC019941EA0A0119
:104B300009B200290FD441F626050CEA0312C2F28D
:104B400000052A4403F0070112F80A5008FA01F19F
:104B5000294302F80A103F2BD8BFB9F17F0F12DCAE
:104B600053EA09010FD403F007010CEA031241F6DE
:104B70002603C2F200031A4412F8095008FA01F1A0
:104B8000294302F8091001280EF1010033D00899D9
:104B9000421810B23F2814DC42EA0A0109B2002987
:104BA0000FD441F626030CEA0012C2F200031A44A5
:104BB00000F0070112F80A5008FA01F1294302F83F
:104BC0000A103F28D8BFB9F17F0F12DC50EA090163
:104BD0000FD441F6260200F007010CEA0010C2F2E1
:104BE0000002104410F8092008FA01F1114300F8FE
:104BF00009100EF102000799AEEB010111F1040F4B
:104C00000DD9DDE070460799AEEB010111F1040FFB
:104C100005D9D5E007990430814200F0D180089988
:104C200045182FB23F2F14DC45EA0A0109B20029CA
:104C30000FD441F626030CEA0712C2F200031A440D
:104C400007F0070112F80A3008FA01F1194302F8D7
:104C50000A103F2FD8BFB9F17F0F12DC57EA0901C4
:104C60000FD441F626030CEA0712C2F200031A44DD
:104C700007F0070112F8093008FA01F1194302F8A8
:104C800009106A1C17B23F2F14DC42EA0A0109B26C
:104C900000290FD441F626030CEA0712C2F20003E2
:104CA0001A4407F0070112F80A3008FA01F1194313
:104CB00002F80A103F2FD8BFB9F17F0F12DC57EA74
:104CC00009010FD441F626030CEA0712C2F20003D1
:104CD0001A4407F0070112F8093008FA01F11943E4
:104CE00002F80910AA1C17B23F2F14DC42EA0A018D
:104CF00009B200290FD441F626030CEA0712C2F2CA
:104D000000031A4407F0070112F80A3008FA01F10B
:104D1000194302F80A103F2FD8BFB9F17F0F12DCF8
:104D200057EA09010FD441F626030CEA0712C2F232
:104D300000031A4407F0070112F8093008FA01F1DC
:104D4000194302F80910EA1C17B23F2F14DC42EA9B
:104D50000A0109B200290FD441F626030CEA071212
:104D6000C2F200031A4407F0070112F80A3008FAE9
:104D700001F1194302F80A103F2FD8BFB9F17F0F94
:104D80003FF748AF57EA09013FF544AF41F6260324
:104D90000CEA0712C2F200031A4407F0070112F8E6
:104DA000093008FA01F1194302F8091032E700BF8F
:104DB00070460799AEEB010111F1040F6CD900BFE9
:104DC0000598DDF820E004E0023081B28B453FF425
:104DD00057AD00EB0E031DB23F2DD8BF7F2C12DC68
:104DE00043EA040109B200290DD441F626070CEA72
:104DF0000512C2F200073A4405F00701175D08FAF0
:104E000001F1394311553F2DD8BF7F2E10DC55EAF3
:104E100006010DD405F007010CEA051241F626053E
:104E2000C2F200052A44975D08FA01F13943915511
:104E30005A1C13B23F2BD8BF7F2C12DC42EA04016C
:104E400009B200290DD441F626050CEA0312C2F27C
:104E500000052A4403F00701175D08FA01F1394300
:104E600011553F2BD8BF7F2EAEDC53EA0601ABD4E1
:104E700003F007010CEA031241F62603C2F2000315
:104E80001A44935D08FA01F1194391559CE700BF5C
:104E900007990430814293D0089943181FB23F2FDD
:104EA00014DC43EA090109B200290FD407F0070115
:104EB0000CEA071241F62607C2F200073A4412F83C
:104EC000097008FA01F1394302F809105A1C17B2A7
:104ED0003F2F14DC42EA090109B200290FD407F080
:104EE00007010CEA071241F62607C2F200073A440E
:104EF00012F8097008FA01F1394302F809109A1CF6
:104F000017B23F2F14DC42EA090109B200290FD47D
:104F100007F007010CEA071241F62607C2F2000764
:104F20003A4412F8097008FA01F1394302F80910FD
:104F3000DA1C13B23F2BABDC42EA090109B20029AB
:104F4000A6D403F007010CEA031241F62603C2F2CD
:104F500000031A4412F8093008FA01F1194302F863
:104F6000091095E709B0BDE8F08F00BF4FF0010CC4
:104F70006FF0700704E000BF043081423FF46CAC76
:104F800000EB0E0635B23F2D12DC46EA030212B2E8
:104F9000002A0DD441F6260405F0070207EA05159C
:104FA000C2F200042544EC5C0CFA02F22243EA54FB
:104FB000721C15B23F2D11DC1A4312B2002A0DD417
:104FC00041F6260405F0070207EA0515C2F20004BF
:104FD0002544EC5C0CFA02F22243EA54B21C15B2EE
:104FE0003F2D11DC1A4312B2002A0DD441F62604DB
:104FF00005F0070207EA0515C2F200042544EC5C3F
:105000000CFA02F22243EA54F21C16B23F2EB3DC31
:105010001A4312B2002AAFD441F6260406F0070262
:1050200007EA0616C2F200042644F55C0CFA02F206
:105030002A43F254A0E700003F29D8BF7F2801DDB2
:10504000704700BF51EA000248BF70476FF070031D
:1050500001F0070203EA011141F62603C2F2000340
:1050600019444FF0010C0B5C0CFA02F21A430A547B
:1050700070470000B0B540F60044C4F20104054694
:10508000C20920464FF48041FCF770FB20464FF4E4
:1050900000510122FCF76AFB20464FF40051002228
:1050A000FCF764FBC5F3801220464FF48041FCF707
:1050B0005DFB20464FF400510122FCF757FB2046D0
:1050C0004FF400510022FCF751FBC5F3401220467B
:1050D0004FF48041FCF74AFB20464FF40051012277
:1050E000FCF744FB20464FF400510022FCF73EFB46
:1050F000C5F3001220464FF48041FCF737FB2046F1
:105100004FF400510122FCF731FB20464FF40051CF
:105110000022FCF72BFBC5F3C00220464FF4804170
:10512000FCF724FB20464FF400510122FCF71EFB44
:1051300020464FF400510022FCF718FBC5F3800213
:1051400020464FF48041FCF711FB20464FF40051FC
:105150000122FCF70BFB20464FF400510022FCF724
:1051600005FBC5F3400220464FF48041FCF7FEFAF0
:1051700020464FF400510122FCF7F8FA20464FF484
:1051800000510022FCF7F2FA05F0010220464FF42C
:105190008041FCF7EBFA20464FF400510122FCF766
:1051A000E5FA20464FF400510022FCF7DFFA2046D2
:1051B0004FF400510122FCF7D9FA20464FF4005178
:1051C0000022BDE8B040FCF7D1BA000010B540F6AF
:1051D0000044C4F2010420464FF400510122FCF7C0
:1051E000C5FA20464FF480410122FCF7BFFAAE20F9
:1051F00000F0BEFB002000F0BBFB102000F0B8FB6D
:10520000402000F0B5FBA12000F0B2FBC82000F068
:10521000AFFBA62000F0ACFBA82000F0A9FB3F20CC
:1052200000F0A6FBD32000F0A3FB002000F0A0FBC1
:10523000D52000F09DFB802000F09AFBD92000F0E3
:1052400097FBF12000F094FBDA2000F091FB122094
:1052500000F08EFBDB2000F08BFB402000F088FB91
:10526000202000F085FB022000F082FB8D2000F062
:105270007FFB142000F07CFBA42000F079FBA6202B
:1052800000F076FBAF2000F073FB41F62400C2F281
:1052900000000188962907D096210180812000F026
:1052A00067FB962000F064FBFFF706FAAF20BDE82D
:1052B000104000F05DBB000080B582B0A3F1060C89
:1052C000BCF1040F4AD80FF20603DFE80CF0032507
:1052D0001547370049F2863302EB4202C0F600035D
:1052E00003EB4202A2F1C00C06220823CDF800C055
:1052F00000F036F802B080BD49F6F223C0F6000394
:1053000003EB0212A2F5007C08221023CDF800C0A6
:1053100000F026F802B080BD49F2C053C2EBC202D1
:10532000C0F6000303EB4202A2F5E07C07220C2347
:10533000CDF800C000F014F802B080BD48F6640358
:10534000C2EB0212C0F6000303EB4202A2F5707C2E
:105350000A221423CDF800C000F002F802B080BD8C
:105360002DE9F04F88B0002A079118BF002B03D118
:1053700008B0BDE8F08F00BF7F28F9DC07993F290E
:10538000F6DC11188029A8BF8021079F20EAE0766B
:10539000013902933B44402BC9B2F4B2A8BF402369
:1053A0000D1B17D4591ECFB207998F4212DB61191A
:1053B000BE464F1C802FA8BF8027BC420AD2BEF138
:1053C0003F0FA8BF4FF03F0E0799CDF818E08E456C
:1053D00080F2AA80029900230139C9084FF0000A1F
:1053E000069106E00AF1010A06995FFA8AF39942EA
:1053F00074D307995FFA8AF701EBC707BDB2402D56
:1054000014D3002343F00101C9B29142EAD243F020
:105410000201C9B29142E5D243F00301C9B29142FF
:10542000E0D20433D9B29142ECD3DBE7119907F013
:10543000070C03FB0216382D4FEAD50934D201219F
:1054400041F6260301EBD501C2F20003CCF1080BB3
:105450004FF0000803EBC115002304E001335FFAAD
:1054600083F89045BED2D9B201441FFA81FEBEF145
:105470007F0FF3D841F62604C2F2000416F8081094
:1054800004EBC91414F80E7001FA0CF1394304F856
:105490000E1016F8081015F80E4021FA0BF12143F2
:1054A00005F80E10DAE700BF0025002304E000BF76
:1054B0000133DDB2954295D2DCB20444A4B27F2C14
:1054C000F6D841F62601C2F20001755D01EBC91163
:1054D0000F5D05FA0CF52F430F55E9E70799B1F178
:1054E000FF3F3FF745AF0799119F4B42D90801FB9A
:1054F000027C41F6260103F0070300260027C2F2D2
:10550000000104E00137FEB29642BFF431AFFDB2B4
:105510000544ADB27F2DF5D81CF806604C5DDE4029
:1055200026434E55EEE700BF0799631C0493A31C66
:1055300021EAE17BB9B2BD1B0193E31C05F0030C2A
:105540000093631A49421FFA8BF90593039107E010
:1055500006990BF1010B8B4209F10109BFF43AAF37
:105560000BF00701012707FA01F11FFA8BF36FEA2D
:105570000108BCF1000F25461ED041F62607D908C8
:10558000C2F2000707EBC117395D049D01EA08016B
:10559000BCF1010F39550FD0049DBCF1020F795DAC
:1055A00001EA08017955019D06D0019D795D01EA66
:1055B00008017955009D00BF059911F1040FC7D866
:1055C000039F6FF0700101EA091107EB050A41F62C
:1055D00026072944C2F200073944CF1E17F8041FDA
:1055E0001AF1040A7E7817F8015C97F802E001EAE4
:1055F0000801397006EA080105EA080579700EEA23
:10560000080107F8015CB970E8D1A1E72DE9F04F76
:1056100085B004910E991C46002A0390A1F1060062
:105620001346029212D4042849D8DFE800F0032F71
:1056300023483B0049F28630C0F6000000F14207E3
:10564000DDE903010622082336E000BF04285ED806
:10565000DFE800F00444385D500000BF49F28630B6
:10566000C0F6000000F14E07DDE903010622082321
:105670004AE000BF49F6F220C0F6000000F1B00792
:10568000DDE903010822102316E000BF49F2C050F3
:10569000C0F6000000F19A07DDE9030107220C23A0
:1056A0000AE000BF48F66400C0F6000000F5A577E8
:1056B000DDE903010A2214230097FFF751FE5CBBCA
:1056C0007CE000BF49F6F220C0F6000000F1D007F0
:1056D000DDE903010822102316E000BF49F2C050A3
:1056E000C0F6000000F1B607DDE9030107220C2334
:1056F0000AE000BF48F66400C0F6000000F5C3777A
:10570000DDE903010A2214230097FFF729FE02981E
:1057100040420290002C51D0A4F1010A4CF6CD4831
:10572000A4F1020B0025CCF6CC4842F21079574682
:105730001BE000BF0E9B0120029A03990135B2FBCA
:10574000F0F205FB0311A2FB080608B2F10801EB19
:105750008101A2EB410141F03001CAB20499FFF787
:10576000ABFDA542A7F1010728D05545E2D0ABEB30
:105770000500032802D20E9B012007E00E9B27F0B4
:1057800003010120043900FB09F0FBD1E943214466
:1057900011F00301D0D0012904D100EB80004000BA
:1057A000CAE700BF4FF47A72424302294FF0640106
:1057B00008BF00FB01F21046BEE700BF05B0BDE820
:1057C000F08F00002DE9F04190461278002A08BFC2
:1057D000BDE8F0811C460E4607460020002500BFAC
:1057E00000FB0470D2B200B231462346FFF764FDDD
:1057F0000135E8B218F80020002AF1D1BDE8F081A7
:1058000010B5B02000F0B4F8102000F0B1F800207E
:1058100000F0AEF841F62604C2F2000420468021D2
:1058200000F064F8B12000F0A3F8102000F0A0F818
:10583000002000F09DF804F18000802100F056F86F
:10584000B22000F095F8102000F092F8002000F04F
:105850008FF804F58070802100F048F8B32000F044
:1058600087F8102000F084F8002000F081F804F59B
:10587000C070802100F03AF8B42000F079F81020D0
:1058800000F076F8002000F073F804F50070802135
:1058900000F02CF8B52000F06BF8102000F068F84C
:1058A000002000F065F804F52070802100F01EF85B
:1058B000B62000F05DF8102000F05AF8002000F04B
:1058C00057F804F54070802100F010F8B72000F080
:1058D0004FF8102000F04CF8002000F049F804F5D3
:1058E00060708021BDE81040AFF3008070B540F6D5
:1058F0000044C4F201040D46064620464FF48041A0
:105900000122FBF733FF20464FF400510122FBF741
:105910002DFF20464FF480410022FBF727FF204651
:105920004FF400510022FBF721FF7820FFF7A2FB84
:105930004020FFF79FFB3DB1013E00BF16F8010F6D
:10594000FFF798FB013DF9D120464FF4804100223A
:10595000FBF70CFF20464FF400510122FBF706FF36
:1059600020464FF480410122BDE87040FBF7FEBEA7
:10597000B0B540F60044C4F20104054620464FF499
:1059800080410122FBF7F2FE20464FF40051012234
:10599000FBF7ECFE20464FF480410022FBF7E6FEC9
:1059A00020464FF400510022FBF7E0FE7820FFF77D
:1059B00061FB0020FFF75EFB2846FFF75BFB2046FC
:1059C0004FF480410022FBF7D1FE20464FF40051F6
:1059D0000122FBF7CBFE20464FF480410122BDE8B7
:1059E000B040FBF7C3BE0000704700002DE9F04354
:1059F00091B040F23024C2F2000466680EB1207803
:105A000010B111B0BDE8F0836188B6F90C00814295
:105A100006D180B2B6F90E107768012909DA21E0C3
:105A200002F018FAB0896080B6F90E107768012983
:105A300018DBBFB1042200BFD31E7F698B4211DA8D
:105A400087B1931E7F698B420CDA5FB1531E7F6969
:105A50008B4207DA37B17F698A4203DA002F02F1FD
:105A60000402E9D100B20128CBDB002FC9D0002409
:105A70000FF240080FF2440901AD00BFB6F90E0065
:105A8000B6F90A1020447B6888424A4628464FF0FF
:105A9000400108BF424602F02BFA2046294602F098
:105AA000D1F9B6F90C0001348442AADA7F69002FDB
:105AB000E4D1A6E73E2025730000000020202573D6
:105AC00000000000B0B540F2A01540F20C02C2F296
:105AD0000005C2F200022B8814896988B5F804E039
